:020000040800F2
:10000000980F0020C9000008D1000008D3000008A4
:1000100000000000000000000000000000000000E0
:10002000000000000000000000000000D5000008F3
:100030000000000000000000D7000008A124000814
:10004000DB00000800000000DB000008DB00000807
:10005000DB000008DB00000801040008DB000008EA
:100060000000000045030008B1030008C9030008B0
:10007000DB000008DB000008DB00000800000000D7
:100080009D2500080000000000000000DB000008C3
:10009000DB000008DB000008DB000008DB000008D4
:1000A000DB000008DB000008DB000008892B0008EB
:1000B000992B00080348854600F03EF800480047A9
:1000C000E12D0008980F00200448804704480047AD
:1000D000FEE7FEE7FEE7FEE7FEE7FEE7292500086C
:1000E000B500000830B50B4601460020202201244F
:1000F00009E00D46D5409D4205D31D469540491B5C
:100100002546954040191546521E002DF1DC30BDA4
:1001100070B500242546002801DA01244042002958
:1001200001DA01254942FFF7DDFFAC4200D0404231
:10013000002C00D0494270BD064C0125064E05E05A
:10014000E36807CC2B430C3C98471034B442F7D3F8
:10015000FFF7B4FF2C4F00084C4F000870B58D1806
:100160000478401CA207920F01D10278401C231191
:1001700006D10378401C03E006780E70401C491C31
:10018000521EF9D1002B15D002780C268A1A344061
:10019000401C0C2C03D0A401121B9B1C08E004780B
:1001A0002402121B401CF8E714780C70491C521CE6
:1001B0005B1EF9D5A942D3D3002070BD70B50546AA
:1001C0006C6A606C50210840002835D1606C0121B8
:1001D0004902084360642068C0680321890208401E
:1001E000002825D1206A002822D120680068082133
:1001F000084008281CD12068806804210840800835
:1002000000280DD1206840680C218843216848608F
:10021000606CFF210131884301210843606407E0DD
:10022000606C202108436064A06C01210843A06435
:10023000204600F00DFA03E0E06B016B284688478A
:1002400070BD70B505466C6A606C402108436064FF
:10025000A06C04210843A064204600F0FBF970BDA7
:1002600070B50446656A284600F0F3F970BD0000D9
:1002700038B504460025002000902068806880077B
:10028000800F01280ED120680068C007C00F002829
:1002900006D12068C0680121C9030840884201D105
:1002A000012000E00020002843D120688068224916
:1002B0000840002801D1012000E00020002809D1D9
:1002C000606C102108436064A06C01210843A064A5
:1002D000012038BD206880680121084321688860BA
:1002E000164917480068FFF7FDFE009002E00098ED
:1002F000401E009000980028F9D100F0E9FD054665
:100300000EE000F0E5FD401B022809D9606C1021C9
:1003100008436064A06C01210843A0640120D8E771
:1003200020680068C007C00F0121484048400028ED
:10033000E7D00020CDE700001700008040420F000A
:100340000400002010B5134800F00CFB1248008890
:10035000124909784900124A50520F4840880F4903
:10036000097849000F4A50520B4880880B49097898
:1003700049000D4A505209480078401CC0B2074954
:100380000870052804DD0020087001200749087066
:1003900010BD00002C070020640B0020A0060020E8
:1003A000700B00207C0B0020880B0020A106002091
:1003B00010B5034800F0D6FA00200249087010BDBD
:1003C000440800209206002010B5034800F0CAFA45
:1003D00000200249087010BD7C080020960600200D
:1003E00010B5046863604468102C04D10468A260EE
:1003F0000468E16003E00468A1600468E26010BD85
:1004000010B5082000F048FC10BD70B5044600256A
:10041000002600BF4020005D012801D1022070BDF0
:1004200001214020015500BF206880688007800FAF
:1004300001280CD1206800680840002805D12068F8
:10044000C068C9030840884201D1012000E00020B3
:1004500000282FD1606CFF2101318843022108431D
:10046000606420688068890708432168886000F01C
:100470002FFD064611E000F02BFD801B02280CD951
:10048000606C0221884310210843606400BF002192
:100490004020015500BF0120C1E720688068C00FDF
:1004A000C0070028E7D1606C02218843012108437E
:1004B000606404E0606C202108436064012500BF93
:1004C00000214020015500BF2846A8E7F8B50446A2
:1004D0000D4600260020009001210907A06B8842EC
:1004E00015D0A06B012812D0A06B02280FD0A06BF2
:1004F00003280CD0A06B042809D0A06B052806D0D7
:10050000A06B062803D0A06B072800D000BF00BF57
:100510004020005D012801D10220F8BD01214020CA
:10052000015500BF20688068042108408008002829
:1005300079D14349686888425AD02068806A2A780D
:100540000121914008432168886201210907A06BBD
:10055000884229D0A06B012826D0A06B022823D086
:10056000A06B032820D0A06B04281DD0A06B052809
:100570001AD0A06B062817D0A06B072814D0A86843
:10058000216849694907490F88420DD020684069B0
:10059000C008C0002168486120684069297A49077D
:1005A000490F0843216848612868102802D028684C
:1005B00011283DD1234880682968102901D1C90438
:1005C00000E0112108431F498860286810282FD1B6
:1005D0001D491E480068FFF785FD0A214843009029
:1005E00002E00098401E009000980028F9D11FE01A
:1005F0002068806A2A7801219140884321688862B6
:100600002868102802D02868112811D10D48806868
:100610002968102902D1C90401E004E011218843AE
:100620000849886004E0606C20210843606401266A
:1006300000BF00214020015500BF30466DE700009B
:10064000011000000027014040420F00040000207C
:10065000704770477047000070B5044600260025BB
:10066000002C01D1012070BD606C002806D1A0646F
:10067000002140200155204600F0C6F8606C102192
:10068000084000287ED1002EFCD12068806804211B
:10069000084080080028F5D1606C89018843022158
:1006A00008436064206880688007800F01280DD1AE
:1006B00020680068C007C00F002805D12068C06806
:1006C00089030840884201D1012000E00020002871
:1006D0000FD12068C06818218843A16808432168A9
:1006E000C86020680069800080086168084321684C
:1006F00008612068C068424908402168C860A06954
:100700008003E169C9030843216A49030843616B17
:10071000012902D00121090300E000210843E1681A
:1007200008432169022901D1042100E00021084386
:10073000216B490008430543606A012805D1206AFE
:10074000002802D1012000040543FF21C231A06A24
:10075000884203D0E16AA06A084305432068C06864
:1007600028432168C86001210907A06B884216D080
:10077000A06B012813D0A06B022810D0A06B032817
:100780000DD000E034E0A06B042808D0A06B052851
:1007900005D0A06B062802D0A06B07280DD12068D9
:1007A0004069C008C0002168486120684069218F05
:1007B0004907490F0843216848612068C06811490A
:1007C0000840A84208D10020A064606C0221884340
:1007D00001210843606410E0606C0221884310210D
:1007E00008436064A06C01210843A064012604E072
:1007F000606C1021084360640126304633E7000036
:100800001902FEFFE7FF3F8310B586B0044620497A
:10081000206888423AD100BF1E48806949150843C4
:100820001C4988610846806949150840009000BF4E
:1008300000BF80200190032002900020039001A9B6
:100840000920C00600F038FA032001900290002031
:10085000039001A9104800F02FFA104810490860D1
:100860000020486000210E4881608021C16049005D
:10087000016189004161202181610021C16100F095
:10088000A3F900BF0648E063446200BF06B010BD94
:10089000002401400010024000040048080002400B
:1008A0002C070020F8B504460D46164600272068A0
:1008B0008068042108408008002848D100BF4020FB
:1008C000005D012801D10220F8BD01214020015521
:1008D00000BFE069012803D02046FFF7C9FC0746A6
:1008E000002F35D1606C1B490840FF2101310843BE
:1008F00060640020A06400BF00214020015500BFBB
:100900001548E16B88621548E16BC8621448E16BD9
:1009100008631C2021680860206840681021084393
:10092000216848602068C068012108432168C860C8
:1009300022681146403133462A46E06B00F072F9D6
:1009400020688068042108432168886000E002274D
:100950003846B9E7FEF1FFFFBD010008610200085B
:100960004302000810B5044696480068954A0832CC
:100970002168914201D1082117E0924A1C32216876
:10098000914201D1802110E08E4A3032216891429B
:1009900001D1C91409E08B4A44322168914202D145
:1009A0000121C90301E00121C904084000283ED00B
:1009B0002068006808210840C008002837D0206857
:1009C00000688843216808607E49083120688842B1
:1009D00001D1082017E07B491C312068884201D1F1
:1009E000802010E0774930312068884201D1C0145E
:1009F00009E0744944312068884202D10120C003D3
:100A000001E00120C0046F494860606B0121084388
:100A1000606304212120015500BF002120200155E1
:100A200000BF206B002802D02046216B8847654814
:100A30000068644A08322168914201D1042117E01C
:100A4000604A1C322168914201D1402110E05D4A88
:100A500030322168914201D1091509E0594A4432E6
:100A60002168914202D10121890301E00121890419
:100A7000084000283CD02068006804210840800815
:100A8000002835D02068006820210840002805D1C2
:100A900020680068042188432168086049490831BA
:100AA0002068884201D1042017E046491C312068A3
:100AB000884201D1402010E042493031206888420C
:100AC00001D1001509E03F4944312068884202D134
:100AD0000120800301E0012080043A49486011218F
:100AE00021200155E06A002802D02046E16A8847AB
:100AF00034480068334A08322168914201D102210A
:100B000017E0304A1C322168914201D1202110E0C7
:100B10002C4A30322168914201D1491509E0294A15
:100B200044322168914202D10121490301E00121AF
:100B300049040840002843D020680068022108408A
:100B4000400800283CD02068006820210840002888
:100B500005D120680068022188432168086019498E
:100B600008312068884201D1022017E015491C3164
:100B70002068884201D1202010E0124930312068DD
:100B8000884201D1401509E00E494431206888426D
:100B900002D10120400301E00120400409494860DE
:100BA000606B606301212120015500BF00212020DE
:100BB000015500BFA06A002802D02046A16A8847DC
:100BC00010BD00000000024001460022002901D1B2
:100BD000012070472120405C002802D10023202002
:100BE0004354022321204354086802680C48024001
:100BF0008B6848681843CB6818430B6918434B69E6
:100C000018438B691843CB69184302430868026094
:100C1000002048630123212043540020D9E700002D
:100C20000FC0FFFFF8B504460D4616461F4600BF2D
:100C30002020005D012801D10220F8BD01212020E3
:100C4000015500BF0221212001552068006840089D
:100C50004000216808603B46324629462046FFF79F
:100C6000BFFB2068006802210843216808602068F3
:100C70000068042108432168086020680068082192
:100C80000843216808602068006801210843216842
:100C900008600020D1E7704710B504460548406958
:100CA0002040002804D0034844612046FFF7F3FFAA
:100CB00010BD00000004014078B503460022002466
:100CC0000020DEE0012696400D6835402C46002CC1
:100CD0007ED04D68022D02D04D68122D15D1D50859
:100CE000AE001D462035A8595507EE0E0F25B5401C
:100CF0000646AE4330465607F60E0D69B54028430A
:100D0000D508AD001E4620367051186856000325E0
:100D1000B5400646AE4330460D79AD07AD0F5600DF
:100D2000B540284318604D68012D08D04D68022D4C
:100D300005D04D68112D02D04D68122D18D198683C
:100D400056000325B5400646AE4330465600CD68F2
:100D5000B540284398605868012595400646AE4343
:100D6000304610264D6835402D099540284358607F
:100D7000D86856000325B5400646AE4330465600B7
:100D80008D68B5402843D860012636074D68354048
:100D9000B54275D100BF3E4DAD69012635433C4E8D
:100DA000B5613546AD69ED07ED0F009500BF00BF99
:100DB000384D9608B600A85995072E0F0F25B54057
:100DC0000646AE4330460925ED06AB4203D100E0AE
:100DD00056E000250FE0304DAB4201D101250AE07D
:100DE0002E4DAB4201D1022505E02D4DAB4201D184
:100DF000032500E005259607360FB5402843254D0D
:100E00009608B600A851274D28680546A5432846F0
:100E1000012636044D683540B54202D105462543CA
:100E20002846204D286068680546A54328460126C7
:100E300076044D683540B54202D105462543284623
:100E4000184D6860A8680546A54328460126360562
:100E50004D683540B54202D1054625432846114D1F
:100E6000A860E8680546A5432846012676054D6832
:100E70003540B54202D1054625432846094DE86074
:100E8000521C0D68D540002D00D01BE778BD000036
:100E9000001002400800014000040048000800481B
:100EA000000C004800040140024613690B40002B6F
:100EB00001D0012000E00020704742694A404261B1
:100EC0007047002A01D0816100E081627047000014
:100ED00001480068704700000000002002480068D8
:100EE000401C0149086070470000002010B506480A
:100EF00000681021084304490860002000F006F84B
:100F000000F018F8002010BD0020024070B5044623
:100F100000F0FAF906467D21C900FFF7E3F805461F
:100F200000F066FD00222146501E00F027F8002048
:100F300070BD000008B500BF094880690121084361
:100F40000749886108468069C007C00F009000BF4C
:100F500000BF00221146501E00F010F808BD00002E
:100F60000010024000BFC206D20E01219140024A89
:100F7000116000BF7047000000E100E070B504465A
:100F80000D4616462946204601F04EFA70BD000077
:100F9000F8B5044600250026012109042068084010
:100FA000884266D14148006A0321090208400322B1
:100FB00012026168114088425BD000BF3B48C069A3
:100FC0000121090708433949C8610846C069090475
:100FD0000840009000BF00BF35480068091508436D
:100FE00033490860FFF774FF054606E0FFF770FF1E
:100FF000401B642801D90320F8BD2D480068FF215B
:10100000013108400028F1D02848006A0321090274
:10101000884306462548006A0121090408432349FC
:1010200008620846006A0121090488431F490862D2
:101030000846066202203040002811D0FFF748FF22
:10104000054607E0FFF744FF401B1A49884201D9D3
:101050000320D1E71548006A022108400028F1D09A
:101060001248006A032109028843616808430F4956
:1010700008622078C007C00F002807D00B48006B1B
:1010800080088000A168084308490863202120687F
:101090000840202807D10548006B10218843E168EB
:1010A0000843024908630020A6E700000010024040
:1010B000007000408813000070B504460D460026FD
:1010C0008E480068C007C00FA84271D28B480068E4
:1010D0004008400028438949086008460068C00766
:1010E000C00FA84201D0012070BD02212068084035
:1010F000022807D182484068F0218843A16808434C
:101100007F4948602078C007C00F00283CD0606845
:10111000012808D17A4800680121490408400028C4
:1011200015D10120E0E76068022808D17448006802
:10113000012149060840002809D10120D4E7704860
:10114000006802210840002801D10120CCE76C484A
:101150004068800880006168084369494860FFF77B
:10116000B7FE0646606801280FD107E0FFF7B0FE22
:10117000801B6449884201D90320B5E76048406874
:101180000C2108400428F1D1A4E06068022810D1A5
:1011900007E0FFF79DFE801B5A49884201D90320D2
:1011A000A2E7574840680C2108400828F1D191E097
:1011B0000FE007E0FFF78CFE801B5249884201D9FF
:1011C000032091E74E4840680C2108400028F1D1E7
:1011D00080E0022120680840022807D14848406882
:1011E000F0218843A1680843454948602078C0073A
:1011F000C00F00285FD06068012808D1404800680F
:10120000012149040840002815D101206CE76068DD
:10121000022808D13A480068012149060840002800
:1012200009D1012060E73648006802210840002803
:1012300001D1012058E73248406880088000616889
:1012400008432F494860FFF743FE064660680128BF
:101250000FD107E0FFF73CFE801B2A49884201D9E5
:10126000032041E7264840680C2108400428F1D1BA
:1012700021E0606802280FD107E0FFF729FE801BFC
:101280002049884201D903202EE71D4840680C21DF
:1012900008400828F1D10EE007E0FFF719FE801B97
:1012A0001849884201D903201EE7154840680C21DF
:1012B00008400028F1D11148006840084000284348
:1012C0000E49086008460068C007C00FA84201D058
:1012D000012009E7042120680840042808D10848B3
:1012E0004068072109028843E168084304494860CF
:1012F0000020FFF70BFE0020F6E600000020024071
:10130000001002408813000010B500F025F80649CF
:101310004968F02211400909044A515CC840044957
:1013200008600846006810BD001002401C4F00080D
:101330000400002010B5FFF7E7FF054949680722C0
:1013400012021140090A034A515CC84010BD000056
:10135000001002401C4F0008F0B589B024A00146DF
:101360000EC9C06805AC0EC4089025A001460EC980
:10137000C06801AC0EC4049000240027002500269C
:1013800000200090224844680C202040002827D0EC
:10139000042802D0082822D102E01E48009022E052
:1013A0000F2080042040800C05A90E5C1848C06AFC
:1013B0000007000F01A90F5C01200004204001215B
:1013C0000904884206D139461248FEF78BFE704365
:1013D000054602E0104835464543009503E000BF4E
:1013E0000C48009000BF00BF009809B0F0BD00009D
:1013F00002030405060708090A0B0C0D0E0F101056
:101400000102030405060708090A0B0C0D0E0F1054
:101410000010024000127A0000093D0038B5044671
:1014200000252078C007C00F00286FD0FE48406814
:101430000C21084004280BD0FB48406808400828CD
:1014400012D1F948406801210904084088420BD1B3
:10145000F54800680121490408400028E5D060688B
:10146000002853D1012038BD00BFEF48006801219A
:1014700009048843EC490860084600680121890492
:101480008843E949086000BFFFF722FD054607E0F1
:10149000FFF71EFD401BE549884201D90320E2E722
:1014A000E14800680121490408400028F0D100BF4C
:1014B0006068012806D1DC48006849100843DA4911
:1014C000086032E0606800280ED1D748006801212A
:1014D00009048843D449086008460068012189044A
:1014E0008843D149086020E0606805280FD1CE48C4
:1014F0000068012189040843CB4908600846006858
:10150000012109040843C84908600EE038E0C648D4
:101510000068012109048843C3490860084600683F
:10152000012189048843C049086000BF6068002821
:1015300013D0FFF7CDFC054607E0FFF7C9FC401BC1
:10154000BA49884201D903208DE7B74800680121D4
:10155000490408400028F0D012E0FFF7B9FC054626
:1015600007E0FFF7B5FC401BB049884201D90320D2
:1015700079E7AD4800680121490408400028F0D10E
:10158000022120680840022861D1A74840680C2148
:10159000084000280BD0A4484068084008281BD108
:1015A000A1484068012109040840002814D19E4840
:1015B000006802210840002804D0E068012801D01A
:1015C000012050E798480068F82188432169C90044
:1015D0000843954908603AE0E068002820D0924826
:1015E00000680121084390490860FFF771FC054637
:1015F00006E0FFF76DFC401B642801D9032032E7A9
:1016000089480068022108400028F2D08648006816
:10161000F82188432169C90008438349086016E01E
:1016200081480068400840007F490860FFF750FC8F
:10163000054606E0FFF74CFC401B642801D9032057
:1016400011E779480068022108400028F2D10821FA
:1016500020680840082831D1206A002817D0724835
:10166000406A0121084370494862FFF731FC054692
:1016700006E0FFF72DFC401B642801D90320F2E6A9
:101680006948406A022108400028F2D016E0664806
:10169000406A4008400064494862FFF719FC05466B
:1016A00006E0FFF715FC401B642801D90320DAE6A9
:1016B0005D48406A022108400028F2D104212068D8
:1016C0000840042870D100BF5748C0698906084304
:1016D0005549C8610846C06909040840009000BF28
:1016E00000BF534800680915084351490860FFF7D7
:1016F000EFFB054606E0FFF7EBFB401B642801D932
:101700000320B0E64A480068FF2101310840002864
:10171000F1D000BF4448006A4008400042490862D6
:101720000846006A042188433F49086200BFFFF76A
:10173000CFFB054607E0FFF7CBFB401B3B49884248
:1017400001D903208FE63848006A022108400028AA
:10175000F1D100BFA068012806D13348006A0121F9
:101760000843314908622CE0A06800280CD12E48BB
:10177000006A400840002C4908620846006A0421BB
:101780008843294908621CE0A06805280DD1264835
:10179000006A04210843244908620846006A0121BE
:1017A0000843214908620CE034E01F48006A400801
:1017B00040001D4908620846006A042188431A490E
:1017C000086200BFA068002812D0FFF781FB054621
:1017D00007E0FFF77DFB401B1449884201D9032035
:1017E00041E61148006A022108400028F1D011E0CA
:1017F000FFF76EFB054607E0FFF76AFB401B0B494E
:10180000884201D903202EE60748006A02210840D9
:101810000028F1D1102120680840102860D16069AB
:1018200001282DD1004805E0001002408813000077
:1018300000700040406B0421084362494863084639
:10184000406B012108435F494863FFF741FB0546B0
:1018500006E0FFF73DFB401B642801D9032002E6A8
:101860005848406B022108400028F2D05548406B90
:10187000F8218843A169C9000843524948632FE011
:101880006069401D00280FD14E48406B04218843F9
:101890004C4948630846406BF8218843A169C90058
:1018A0000843484948631BE04648406B042108430D
:1018B000444948630846406B400840004863FFF7CE
:1018C00007FB054606E0FFF703FB401B642801D930
:1018D0000320C8E53B48406B022108400028F2D1B4
:1018E000606A00286CD0374840680C2108400828FE
:1018F00064D0606A022847D1324800680121090695
:10190000884330490860FFF7E3FA054606E0FFF731
:10191000DFFA401B642801D90320A4E529480068A8
:101920000121490608400028F1D100BF2548C06ABE
:1019300000090001216B08432249C862A16AE06ADC
:101940000843204949683D221204914308431D4938
:10195000486000BF0846006801210906084319498C
:101960000860FFF7B5FA054606E0FFF7B1FA401B3D
:10197000642801D9032076E5124800680121490650
:1019800008400028F1D01BE00E480068012109063C
:1019900088430C490860FFF79BFA054606E0FFF70D
:1019A00097FA401B642801D903205CE505480068CC
:1019B0000121490608400028F1D101E0012052E54B
:1019C000002050E500100240042806D106490969AC
:1019D00004221143044A116105E003490969042204
:1019E0009143014A1161704700E000E07047000038
:1019F00070B504462546681E0949884201D9012070
:101A00000CE0681E074948610321081F00F00CFD27
:101A100000200449886107200861002070BD000093
:101A2000FFFFFF0000E000E010B5FFF7DFFF10BD93
:101A300070477047024600BF3820805C012801D102
:101A40000220704701233820835400BF022339202D
:101A50008354106840687023984313685860106876
:101A600040680B68184313685860106880688023CA
:101A7000984313689860106880684B68184313682F
:101A8000986001233920835400BF002338208354F9
:101A900000BF0020D5E710B50446002C01D101207D
:101AA00010BD3920005D002805D1002138200155E6
:101AB000204600F00DF8022139200155211D206833
:101AC00000F07AFD0121392001550020E8E70000EF
:101AD00038B504460D492068884215D100BF0C482E
:101AE000C069022108430A49C8610846C069022149
:101AF0000840009000BF00BF002211461020FFF7F1
:101B00003DFA1020FFF72EFA38BD00000004004017
:101B100000100240F8B504460D46002600BF3820EC
:101B2000005D012801D10220F8BD012138200155B6
:101B300000BF022139200155206886687721304690
:101B400088430646FF21090230468843064620683E
:101B50008660286850283ED00CDC202863D004DC46
:101B6000002856D0102868D158E0302860D040288E
:101B700063D144E0602838D070280DD001210903DA
:101B8000401A02D0401A58D117E020688068C00877
:101B9000C0002168886051E0EB686A68A968206825
:101BA00000F054FD20688668772130468843064659
:101BB000772006432068866040E0EB686A68A96881
:101BC000206800F043FD20688068012189030843F4
:101BD0002168886032E0EA686968206800F052FD98
:101BE0005021206800F041FD28E0EA68696820681B
:101BF00000F063FD6021206800F037FD1EE0EA6818
:101C00006968206800F03EFD4021206800F02DFD4D
:101C100014E00021206800F028FD0FE0102120686A
:101C200000F023FD0AE02021206800F01EFD05E001
:101C30003021206800F019FD00E000BF00BF012145
:101C40003920015500BF00213820015500BF002078
:101C50006AE7704710B50446206800690221084011
:101C6000400800281CD02068C068084040080028B0
:101C700016D0481F216808610120207620688069FD
:101C80008007800F002803D02046FFF7E2FF05E021
:101C9000204600F0C3F8204600F0C1F8002020766E
:101CA0002068006904210840800800281DD02068B1
:101CB000C06808408008002817D0C8432168086120
:101CC000022020762068806903210902084000284C
:101CD00003D02046FFF7BDFF05E0204600F09EF848
:101CE000204600F09CF8002020762068006908213A
:101CF0000840C00800281CD02068C0680840C00800
:101D0000002816D0C8432168086104202076206886
:101D1000C0698007800F002803D02046FFF799FF95
:101D200005E0204600F07AF8204600F078F8002020
:101D300020762068006910210840000900281DD085
:101D40002068C06808400009002817D0C8432168EF
:101D50000861082020762068C06903210902084034
:101D6000002803D02046FFF774FF05E0204600F06E
:101D700055F8204600F053F80020207620680069CE
:101D8000C007C00F01214840484000280CD02068FF
:101D9000C068084048404840002805D0C81E216857
:101DA0000861204600F03CF8206800698021084066
:101DB000C00900280BD02068C0680840C00900286E
:101DC00005D0C843216808612046FFF731FE20682E
:101DD000006940210840800900280BD02068C068B5
:101DE00008408009002805D0C843216808612046C2
:101DF00000F017F8206800692021084040090028F9
:101E00000BD02068C06808404009002805D0C843AE
:101E1000216808612046FFF70CFE10BD704770472F
:101E200070477047704710B504462068C069C00706
:101E3000C00F00280FD020680068FF210131084042
:101E4000002808D0012021680862E06E01210843C3
:101E5000E066692001552068C06902210840002819
:101E60000FD020688068C007C00F002809D002206A
:101E700021680862E06E04210843E06601216920C0
:101E800001552068C0690421084000280FD020684F
:101E90008068C007C00F002809D0042021680862AC
:101EA000E06E02210843E0660121692001552068A7
:101EB000C0690821084000280FD020688068C0074A
:101EC000C00F002809D0082021680862E06E0821B0
:101ED0000843E066012169200155E06E002802D028
:101EE0002046FFF79FFF2068C06920210840002896
:101EF0000DD0206800680840002808D0204600F077
:101F0000D4FC206880690821084321688861206822
:101F1000C06980210840002807D020680068084078
:101F2000002802D0204600F0F1FD2068C069402161
:101F30000840002807D0206800680840002802D028
:101F4000204600F094FC10BD10B50446002C01D1D1
:101F5000012010BDA069002800D000E000BF69206A
:101F6000005D002805D1002168200155204600F0C1
:101F70002DF80221692001552068006840084000C2
:101F800021680860204600F0E5FC012800D1E0E768
:101F9000606A002802D0204600F0AAFB2068406852
:101FA0000921C902884321684860206880682A2185
:101FB00088432168886020680068012108432168FF
:101FC0000860204600F00CFCC3E7000010B586B0A6
:101FD00004463F492068884235D100BF3D488069AA
:101FE0000121890308433B49886108468069012132
:101FF00089030840009000BF00BF03204002019009
:1020000002200290012003900320049001200590FB
:1020100001A90920C006FEF74FFE2F482F4908608E
:102020001020486000212D4881608021C16000217E
:10203000016141618161C161FEF7C6FD00BF2748B2
:102040002066446241E02649206888423DD100BFB5
:102050002048C0690121490408431E49C861084657
:10206000C069012149040840009000BF00BF0C2056
:10207000019002200290012003900320049001208F
:10208000059001A90920C006FEF716FE1248283067
:1020900014490860102048600021124881608021A6
:1020A000C1600021016141618161C161FEF78CFD68
:1020B00000BF0C482066446200BF002211461C206D
:1020C000FEF75CFF1C20FEF74DFF06B010BD0000C0
:1020D00000380140001002401C000240440800206B
:1020E000004400407C08002070470000F7B504461B
:1020F00015466920005D012803D06920005D222873
:1021000046D10198002801D0002D01D10120FEBD4B
:1021100000BF6820005D012801D10220F7E70121FE
:102120006820015500BF0198E064502005535220FB
:1021300005530020E0666920005D222803D132218A
:102140006920015502E01221692001551148216ED4
:1021500088621148216EC8621048216E086301AE82
:1021600023681A46283231682B46206EFEF75AFD46
:102170004020216808622068806880210843216827
:10218000886000BF00216820015500BF0020BEE725
:102190000220BCE72128000861280008FB2700086E
:1021A000704770470EB51A481A49086040054860E4
:1021B0000821184881600021C160012101610421CA
:1021C000416100218161C16101624162C1620121FD
:1021D00001634163FEF740FA0E48FEF716F9072047
:1021E00000900120000301900720029069460948F1
:1021F000FEF76CF90820009069460648FEF766F97C
:102200000920009069460348FEF760F90EBD000002
:1022100000240140E006002008B500BF12484069D4
:10222000012108431049486108464069C007C00FB2
:10223000009000BF00BF002201210920FEF79EFE92
:102240000920FEF78FFE002202210A20FEF796FEEB
:102250000A20FEF787FE002211460B20FEF78EFEB5
:102260000B20FEF77FFE08BD0010024000B587B0CE
:1022700000BF374840690121890408433449486157
:1022800008464069012189040840019000BF00BF51
:1022900000BF2F484069491008432D49486108464E
:1022A0004069012149040840019000BF00BF00BF00
:1022B0002748406949010843254948610846406963
:1022C000012189050840019000BF00BF70200290E5
:1022D000032005900120039002A90920C006FEF703
:1022E000EBFC1C480290022004900020039002A9FD
:1022F0000920C006FEF7E0FC174802900220049077
:102300000020039002A91548FEF7D6FC01204002E8
:102310000290032005900120039002A90F48FEF7C8
:10232000CBFC072040030290022004900020039081
:1023300002A90B48FEF7C0FCC020029002200490C6
:102340000020039002A90748FEF7B6FC07B000BDC5
:102350000010024003990000FCFD0000000400484A
:10236000000800480014004800B587B00E480F4927
:1023700008606420486000210C4881600121C16030
:1023800000210161FFF787FB01200003039003A9EF
:102390000648FFF7BFFB00200190029001A9034807
:1023A000FFF748FB07B000BD00040040A406002072
:1023B00010B50C480C490860E1204002486000213B
:1023C00009488160C16001610C2141610021816186
:1023D000C16101620020044948620846FFF7B4FD6C
:1023E00010BD0000003801406407002010B50B4804
:1023F0000B4908600B484860002109488160C160B2
:1024000001610C21416100218161C16101620020F3
:10241000034948620846FFF797FD10BD004400409D
:10242000D4070020127A000010B5002819DA1A4AE1
:1024300003071B0F083B9B089B00D2588307DC0E49
:10244000FF23A3409A438B071B0E8407E40EA3408F
:102450001A43114B0407240F083CA408A4001A5186
:1024600018E00E4A03231B02D21883089B00D2589F
:102470008307DC0EFF23A3409A438B071B0E8407C0
:10248000E40EA3401A43054B032424021B198408BD
:10249000A4001A5110BD00001CED00E000E100E0B6
:1024A00010B5FEF71BFDFFF7BFFA012003490870C6
:1024B00003480088401C0249088010BD980600208F
:1024C0008C06002030B595B00120089009900220BC
:1024D0001190C1031291C10413910021149108A815
:1024E000FEF79CFF0120049002200590002006903A
:1024F0000790012104A8FEF7DFFD012000900020D5
:1025000002906846FEF744FDFEF7FEFE05460549CB
:10251000FDF7E8FD0446FFF76BFA0420FFF754FAD5
:1025200015B030BDA086010019480068012108439C
:102530001749086008464068164908401449486031
:1025400008460068144908401149086008460068B8
:102550000121890488430E490860084640683F21EC
:10256000090488430A4948600846C06A0009000116
:10257000C8620846006BFF21143188430449086390
:102580000846406B40084000486300208860704760
:10259000001002400CB8FF08FFFFF6FE10B504481B
:1025A000FFF758FB03480088401C0249088010BD13
:1025B000A40600208C06002010B5002202681D4BE6
:1025C000984202D01C4B984205D170241346A34375
:1025D0001A464B681A43174B98420ED0164B984236
:1025E0000BD0164B984208D0154B984205D0154B8E
:1025F000984202D0144B984206D103242402134679
:10260000A3431A46CB681A4302608B68C3620B6807
:102610008362084B984208D0094B984205D0094B79
:10262000984202D0084B984201D10B690363012301
:10263000436110BD002C0140000400400020004018
:1026400000400140004401400048014070B50C4684
:1026500000218168FF2636020D46B54329461D023A
:10266000154325432943816070BD10B50A460021FA
:10267000816870240B46A34319460723134319436B
:10268000816010BD70B50B46144600210022026A1D
:10269000056A6D086D0005628169F0260D46B54337
:1026A0002946250129430A261546B5432A461546DB
:1026B0001D432A468161026270BD70B50B46144607
:1026C00000210022056A1026B54305628169026A6D
:1026D0000F2636030D46B543294625032943A02678
:1026E0001546B5432A461D012A438161026270BD29
:1026F000818CC907C90F002908D0016849680122E7
:1027000052049143826A1143026851600222416A75
:102710001140002907D001684968D2039143C26A79
:102720001143026851600422416A1140002907D018
:102730000168496812049143026B114302685160B9
:102740000822416A1140002907D001684968120334
:102750009143426B1143026851601022416A11405B
:10276000002907D00168896812029143826B1143E6
:10277000026891602022416A1140002907D0016857
:10278000896812029143C26B114302689160402232
:10279000416A1140002915D00168496892039143AC
:1027A000026C11430268516001221205016C9142D2
:1027B00008D101684968032252059143426C1143D4
:1027C000026851608022416A1140002907D00168E7
:1027D000496812039143826C11430268516070474B
:1027E00001460020C86601226920425400BF002231
:1027F0006820425400BF0020704770B505466C6ADF
:1028000000215A2001535220015301216920015512
:10281000E06E10210843E0662046FFF703FB70BD21
:1028200070B505466C6A28680068202108400028B9
:1028300012D1002152200153012169200155206845
:102840008068802188432168886020680068402172
:1028500008432168086002E02046FFF7A1FC70BD34
:1028600070B50446656A2846FFF79BFC70BD10B53D
:102870000446206800684021884321680860692078
:10288000005D322803D122216920015508E020682B
:102890008068400840002168886001216920015556
:1028A0002046FFF77DFC002010BD70B504465C207B
:1028B000065B6920005D222803D06920005D322874
:1028C00045D101210903A06888420BD12069002865
:1028D00008D1656D2068808C30402880606D801C38
:1028E000606507E02068808CF1B20840626D511C81
:1028F000616510705A20005B401E81B25A2001535E
:10290000002922D1206800682021884321680860BE
:102910006920005D322803D11221692001550FE0A2
:1029200020680068FF210131884321680860206821
:1029300080684008400021688860012169200155B5
:102940002046FFF7D1FB002070BD0020FCE70220ED
:10295000FAE70000FEB504460025102600270020F7
:10296000029001902169A068084361690843E16908
:1029700008430546206800685D49084028432168EF
:10298000086020684068032109038843E168084320
:1029900021684860216AA06908430546206880686C
:1029A0000B210902884328432168886000BF5149F0
:1029B0002068884217D15048006B8007800F00289C
:1029C00006D0012808D0022808D0032808D101E049
:1029D000002607E0022605E0042603E0082601E0C1
:1029E000102600BF06E045492068884201D1002634
:1029F00000E0102600BF0121C903E06988423FD1F1
:102A0000042E1BD004DC002E07D0022E28D10EE0AD
:102A1000082E1DD0102E23D123E0FEF78BFC4000A2
:102A200000906168FDF75EFB80B202901CE03448C4
:102A30006168FDF757FB80B2029015E0FEF78CFC51
:102A4000400000906168FDF74DFB80B202900BE002
:102A5000012000046168FDF745FB80B2029003E0AD
:102A600000BF0120019000BF00BF26490298084026
:102A7000074602980007400F07432068C76035E00B
:102A8000042E1CD004DC002E07D0022E29D10EE02B
:102A9000082E1ED0102E24D124E0FEF74BFC00900F
:102AA0006168FDF71FFB80B22168C8601DE0164811
:102AB0006168FDF717FB80B22168C86015E0FEF77A
:102AC0004BFC00906168FDF70DFB80B22168C86087
:102AD0000BE00120C0036168FDF704FB2168C860BA
:102AE00003E000BF0120019000BF00BF0198FEBDC0
:102AF000F369FFFF0038014000100240004400402D
:102B00000024F400F0FF000000127A000146692062
:102B1000405C122803D06920405C322831D1522019
:102B2000405A00280DD108680068802398430B683C
:102B3000186008680068402318430B68186000207C
:102B4000704701231B03886898420CD1086900284C
:102B500009D1CA6C1088C005C00D0B681885C86CF7
:102B6000801CC86405E0CB6C581CC86418780B68DE
:102B700018855220405A401E83B2522043520020F2
:102B8000DEE70220DCE7000010B50248FFF74BF952
:102B900010BD00006407002010B50248FFF743F99C
:102BA00010BD0000D407002030B47446641E2578A0
:102BB000641CAB4204D3635D5B00E31830BC184770
:102BC0001D46F8E702E008C8121F08C1002AFAD122
:102BD00070477047002001E001C1121F002AFBD19D
:102BE0007047000030B50B23154A14781278521C38
:102BF000134D2A70134A1355B0232A4614781278BD
:102C0000521C2A700F4A13552A4613781278521C08
:102C10002C4622700B4AD054224613781278521C4C
:102C20002270084AD15422461278C72A02DD0022B7
:102C300023461A70044A1278121D034B1A7030BDD5
:102C400094060020880A00209506002010B504464E
:102C50002300FFF7A9FF0805182B3E5164778A9DD2
:102C6000002210210920C006FEF72BF900222021A6
:102C70000920C006FEF725F9002240210920C006E0
:102C8000FEF71FF985E0012210210920C006FEF79A
:102C900018F9002220210920C006FEF712F90022AF
:102CA00040210920C006FEF70CF972E00022102135
:102CB0000920C006FEF705F9012220210920C006DF
:102CC000FEF7FFF8002240210920C006FEF7F9F8C0
:102CD0005FE0012210210920C006FEF7F2F8012270
:102CE00020210920C006FEF7ECF80022402109202F
:102CF000C006FEF7E6F84CE0002210210920C006CD
:102D0000FEF7DFF8002220210920C006FEF7D9F8DF
:102D1000012240210920C006FEF7D3F839E0012244
:102D200010210920C006FEF7CCF80022202109203E
:102D3000C006FEF7C6F8012240210920C006FEF7B2
:102D4000C0F826E0002210210920C006FEF7B9F8DD
:102D5000012220210920C006FEF7B3F801224021FC
:102D60000920C006FEF7ADF813E00122102109206A
:102D7000C006FEF7A6F8012220210920C006FEF7B2
:102D8000A0F8012240210920C006FEF79AF800E0D1
:102D900000BF00BF10BD70B501460B880C880888C5
:102DA000012211E055004D5BA54201DD55004C5B51
:102DB00055004D5B9D4201DA55004B5B55004D5B64
:102DC0002D18A8B2551CEAB2062AEBDBC51A2D1B3A
:102DD000A8B20546C617B60F7619B01070BD000030
:102DE000FEF784F8FFF76EFBFFF740FAFFF714FADF
:102DF000FFF7D8F9FFF7B8FAFFF7DAFAFFF7F6FAB4
:102E0000002201214902FE48FEF75BF80020FD493F
:102E10000870FD480078FFF719FFFDE30020FB492B
:102E20000870F848007800287ED001218902F44813
:102E3000FEF73AF8002819D0F548F3490978405CC4
:102E4000C007C00F002864D1F148EF490978405C01
:102E500001210843EE49EC4A12788854ED48008875
:102E6000E94909784900EC4A505252E0E848E649FD
:102E70000978405CC007C00F002845D0E2480078C0
:102E80004000E649085CC007C00F00283CD0DE487F
:102E900000784000085A40084000DB4909784900A2
:102EA000DE4A50520921DE4802780078401CDC4B93
:102EB0001870DC4881549022184601780078401C34
:102EC0001870D8484254D04800785721081A153055
:102ED000C1B2184602780078401C1870D14881545D
:102EE0000022184601780078401C1870CD484254E2
:102EF00018460078C72802DD002019460870CA4825
:102F00000078001DC84908700021C148BE4A1278E7
:102F100081540121C902BA48FDF7C6FF00281FD01D
:102F2000BB480830B84900E0FEE30978405CC007C0
:102F3000C00F00286BD1B6480830B3490978405C0F
:102F400001210843B2490831AF4A12788854B14888
:102F50000188AD4800784200AF481030815256E0F9
:102F6000AB480830A8490978405CC007C00F00286A
:102F700047D0A54800784000A849085A02210840D7
:102F800000283ED0A04800784000A449085A0221F9
:102F900088439D4909784900A04A50520921A04818
:102FA00002780078401C9E4B18709E4881549021F6
:102FB000184602780078401C18709A48815492484C
:102FC000007808305721081A1530C1B21846027827
:102FD0000078401C187093488154002118460278EC
:102FE0000078401C18708F48815418460078C72814
:102FF00002DD0020194608708B480078001D8A49C0
:1030000008700021824808307F4A1278815480215C
:103010007B48FDF749FF00281DD07D4810307A49D4
:103020000978405CC007C00F00286BD17848103089
:1030300075490978405C0121084375491031724A8D
:1030400012788854734801886F48007842007248AB
:103050002030815256E06E4810306B490978405C50
:10306000C007C00F002847D06748007840006B4970
:10307000085A0421084000283ED0634800784000E8
:103080006649085A042188435F4909784900634A20
:1030900050520922624801780078401C604B187039
:1030A000604842549021184602780078401C1870FD
:1030B0005C4881545448007810305721081A153064
:1030C000C2B2184601780078401C18705548425426
:1030D0000022184601780078401C1870514842546C
:1030E00018460078C72802DD0020194608704E48AF
:1030F0000078001D4C490870002145481030424AB4
:103100001278815440213E48FDF7CEFE00281DD0A4
:103110003F4818303C490978405CC007C00F002880
:103120006BD13B48183038490978405C012108438D
:1031300037491831344A1278885436480188324861
:103140000078420034483030815256E03048183020
:103150002D490978405CC007C00F002847D02A4895
:10316000007840002D49085A0821084000283ED028
:103170002548007840002949085A082188432249F7
:1031800009784900254A50520922254801780078DB
:10319000401C234B18702348425490211846027853
:1031A0000078401C18701F48815417480078183068
:1031B0005721081A1530C1B2184602780078401C11
:1031C0001870184881540022184601780078401C75
:1031D00018701448425418460078C72802DD0020B1
:1031E0001946087010480078001D0F49087000212A
:1031F00007481830044A127881542021004815E00D
:10320000000400488F0600208E060020980600204B
:10321000B40800208C0600200C090020540B00206C
:1032200094060020880A002095060020FDF73CFE49
:10323000002819D0FD48FE490978405CC007C00F3E
:10324000002866D1F948FA490978405C0121084311
:10325000F649F74A12788854F6480188F44800780D
:103260004200F548815254E0F048F1490978405C49
:10327000C007C00F002847D0ED4800784000EF4954
:10328000085A1021084000283ED0E9480078400044
:10329000EA49085A10218843E54909784900E74A74
:1032A00050520922E64801780078401CE44B18701F
:1032B000E44842549021184602780078401C187067
:1032C000E0488154DA48007820305721081A153038
:1032D000C1B2184602780078401C1870D948815451
:1032E0000022184601780078401C1870D5484254D6
:1032F00018460078C72802DD002019460870D24819
:103300000078001DD04908700021C848C84A1278CA
:1033100081541021CD48FDF7C7FD00281DD0C348BA
:103320000830C3490978405CC007C00F00286BD142
:10333000BE480830BE490978405C01210843BB49BA
:103340000831BB4A12788854BA480188B8480078D6
:103350004200B9481030815256E0B4480830B449B0
:103360000978405CC007C00F002847D0B0480078FB
:103370004000B249085A2021084000283ED0AC48FD
:1033800000784000AD49085A20218843A8490978AF
:103390004900AA4A50520922A94801780078401CE5
:1033A000A74B1870A748425490211846027800781D
:1033B000401C1870A34881549D480078283057213C
:1033C000081A1530C1B2184602780078401C1870EF
:1033D0009C4881540022184601780078401C1870DF
:1033E0009848425418460078C72802DD0020194644
:1033F000087095480078001D9349087000218B489B
:1034000008308B4A1278815408219048FDF74CFD12
:1034100000281DD08548103085490978405CC007D8
:10342000C00F00286BD18148103081490978405C79
:10343000012108437D4910317D4A127888547D4826
:1034400001887B48007842007B482030815256E05A
:103450007648103076490978405CC007C00F0028D4
:1034600047D07348007840007449085A402108400A
:1034700000283ED06E48007840007049085A40212C
:1034800088436B49097849006C4A505209216C48BD
:1034900002780078401C6A4B18706A488154902268
:1034A000184601780078401C1870664842546048FD
:1034B000007830305721081A1530C1B2184602780A
:1034C0000078401C18705F4881540021184602782B
:1034D0000078401C18705B48815418460078C72853
:1034E00002DD00201946087057480078001D564933
:1034F000087000214D4810304D4A12788154012146
:10350000C9030920C006FDF7CFFC00281DD047489D
:10351000183047490978405CC007C00F00286BD1BC
:103520004248183042490978405C012108433F492C
:1035300018313F4A127888543E4801883C48007848
:1035400042003D483030815256E038481830384902
:103550000978405CC007C00F002847D03448007885
:1035600040003649085A8021084000283ED03048A3
:10357000007840003149085A802188432C49097855
:1035800049002E4A505209222D4801780078401CEB
:103590002B4B18702B484254902218460178007823
:1035A000401C187027484254214800783830572171
:1035B000081A1530C1B2184602780078401C1870FD
:1035C000204881540021184602780078401C187069
:1035D0001C48815418460078C72802DD002019468F
:1035E000087019480078001D1749087000210F481D
:1035F00018300F4A1278815480211548FDF754FC89
:10360000002833D00948203009490978405CC007B8
:10361000C00F002829D100E0FEE30448203004490F
:103620000978405C01210843004913E0D4080020D8
:103630008E0600208C0600204C090020540B002030
:1036400094060020880A0020950600200004004807
:10365000001400482031FE4A12788854FD48018841
:10366000FB4800784200FC48815256E0FB48F8498C
:103670000978405CC007C00F002849D0F4480078A2
:103680004000F749085AFF210131084000283FD087
:10369000EF4800784000F249085AFF210131884381
:1036A000EB4909784900EE4A50520921ED48027869
:1036B0000078401CEB4B1870EB4881549022184660
:1036C00001780078401C1870E7484254E0480078C0
:1036D00040305721081A1530C2B2184601780078D8
:1036E000401C1870E04842540022184601780078C7
:1036F000401C1870DC48425418460078C72802DD88
:10370000002019460870D9480078001DD749087074
:103710000021D248CE4A127881544021D448FDF786
:10372000C3FB00281FD000E0F8E0CC480830C849AF
:103730000978405CC007C00F00286DD1C748083029
:10374000C3490978405C01210843C4490831C04A93
:1037500012788854BF480188BD4800784200BE48AE
:103760001030815258E0BD480830B9490978405CB2
:10377000C007C00F002849D0B54800784000B849BC
:10378000085A01214902084000283FD0B04800787B
:103790004000B349085A012149028843AC490978DD
:1037A0004900AF4A50520921AE4802780078401CC7
:1037B000AC4B1870AC4881549021184602780078C0
:1037C000401C1870A8488154A148007848305721FF
:1037D000081A1530C1B2184602780078401C1870DB
:1037E000A14881540021184602780078401C1870C6
:1037F0009D48815418460078C72802DD00201946EC
:1038000008709A480078001D984908700021934874
:1038100008308F4A12788154012109030920C0061B
:10382000FDF742FB00281FD08C48103088490978EA
:10383000405CC007C00F002801D001F05AF887484B
:10384000103083490978405C0121084383491031D5
:103850007F4A127888547F4801887D48007842006A
:103860007D4820308152E8E77C481030784909785B
:10387000405CC007C00F002849D075480078400060
:103880007749085A01218902084000283FD0704832
:10389000007840007249085A0121890288436C4926
:1038A000097849006E4A505209226E480178007822
:1038B000401C6C4B18706C4842549022184601789A
:1038C0000078401C187068484254614800785030B5
:1038D0005721081A1530C2B2184601780078401CEA
:1038E0001870614842540022184601780078401C44
:1038F00018705D48425418460078C72802DD002041
:103900001946087059480078001D58490870002170
:10391000524810304E4A127881548EE701218902B4
:103920005448FDF7C1FA00287ED04C484038484939
:103930000978405C012877D14848403844490978E3
:10394000405C1021084345494039414A1278885467
:103950003F480078400040498039085A3D4909886D
:1039600088420FDA3A48007840003B498039085ACB
:1039700038490988081A364909784900364A803A90
:10398000505211E032480078400033498039085ADB
:103990000021C943081A2F49098840182C49097881
:1039A00049002D4A803A50522949097849002A4A4B
:1039B000803A505A002101F0C9F9254800784000AA
:1039C0002749085A01210843214909784900244A16
:1039D000505229480078C72802DD00202649087087
:1039E000264800780A302549087009221D480178C8
:1039F0000078401C1B4B18701B48425490211846FD
:103A000002780078401C18701748815410480078DC
:103A10005721081A1530C1B2184602780078401CA8
:103A200018701148815400E042E0094A12785200AF
:103A3000094B803B995A064A127857239A1A104B21
:103A40009A5C92000F4B985801F05CF9C1B21BE0F0
:103A50008E0600208C0600208C090020F40800202F
:103A6000540B002094060020880A002095060020B0
:103A70000014004800040048900600209106002031
:103A80001800002070060020FE4802780078401CD4
:103A9000FC4B1870FC48815418460078C72802DD9A
:103AA000002019460870F9480078001DF749087091
:103AB0000121C902F648FDF7F7F900287ED0F54844
:103AC000F5490978405C012878D1F248F249097833
:103AD000405C10210843EF49EF4A12788854EE48C1
:103AE00000784100ED48405AED49098888420EDAD5
:103AF000E94800784100E948405AE9490988081A2C
:103B000081B2E54800784200E448815210E0E24882
:103B100000784100E148405A0021C943081AE049B1
:103B20000988401881B2DC4800784200DB488152A5
:103B3000D94909784A00D949885A082101F006F97B
:103B4000D54800784000D749085A02210843D24995
:103B500009784900D34A5052D3480078C72802DD7B
:103B60000020D1490870D14800780A30CF49087048
:103B70000922C44801780078401CC24B1870C24822
:103B800042549021184602780078401C1870BE48B4
:103B90008154C148007808305721081A1530C1B245
:103BA000184602780078401C1870B7488154BA4A09
:103BB00012785300B94AD15AB74A00E01FE0127890
:103BC000083257239A1ABA4B9A5C9200B94B98580C
:103BD00001F098F8C2B2AB4801780078401CA94BBC
:103BE0001870A948425418460078C72802DD002002
:103BF00019460870A5480078001DA4490870802166
:103C0000A348FDF751F900287ED0A2480830A24908
:103C10000978405C012877D19E4808309E49097890
:103C2000405C102108439B4908319B4A1278885414
:103C300099480078410099481030405A98490988BD
:103C4000884210DA94480078410094481030405A75
:103C500093490988081A81B28F48007842008F483A
:103C60001030815212E08C48007841008B481030AF
:103C7000405A0021C943081A89490988401881B26D
:103C80008548007842008548103081528249097881
:103C90004A0082491031885A102101F057F87E48B5
:103CA000007840007F49085A042108437A4909787E
:103CB00049007C4A50527C480078C72802DD002029
:103CC00079490870794800780A30784908700922E3
:103CD0006C4801780078401C6A4B18706A4842545E
:103CE0009021184602780078401C1870664881546C
:103CF0006948007810305721081A1530C1B21846AB
:103D000002780078401C00E029E018705E48815479
:103D1000614A12785300614A1032D15A5E4A1278D1
:103D2000103257239A1A624B9A5C9200614B985852
:103D300000F0E8FFC2B2534801780078401C514BB4
:103D400018705148425418460078C72802DD0020F8
:103D5000194608704D480078001D4C4908704021F4
:103D60004B48FDF7A1F800287ED04A4810304A4958
:103D70000978405C012877D14648103046490978D7
:103D8000405C1021084343491031434A127888545B
:103D900041480078410041482030405A4049098854
:103DA000884210DA3C48007841003C482030405AB4
:103DB0003B490988081A81B23748007842003748E1
:103DC0002030815212E034480078410033482030DE
:103DD000405A0021C943081A31490988401881B264
:103DE0002D48007842002D48203081522A49097818
:103DF0004A002A492031885A182100F0A7FF264896
:103E0000007840002749085A0821084322490978C8
:103E10004900244A505200E0FEE323480078C728B6
:103E200002DD002020490870204800780A301F4930
:103E300008700921134802780078401C114B187053
:103E4000114881549021184602780078401C18705F
:103E50000D4881541048007818305721081A153041
:103E6000C2B21846017800E046E00078401C1870A5
:103E700005484254084A12785300084A2032D15A61
:103E8000054A19E094060020880A002095060020C3
:103E900000040048BC0800208E0600201C090020F9
:103EA0008C060020540B0020900600209106002074
:103EB00018000020700600201278183257239A1A32
:103EC000FE4B9A5C9200FE4B985800F01BFFC2B26A
:103ED000FC4801780078401CFA4B1870FA484254AC
:103EE00018460078C72802DD002019460870F748F8
:103EF0000078001DF54908702021F548FCF7D4FF33
:103F000000287DD0F348F4490978405C012877D136
:103F1000F048F1490978405C10210843ED49EE4A28
:103F200012788854EC4800784100EC48405AEC493B
:103F3000098888420EDAE84800784100E748405A8C
:103F4000E7490988081A81B2E34800784200E3484B
:103F5000815210E0E04800784100E048405A0021DA
:103F6000C943081ADE490988401881B2DA48007846
:103F70004200DA488152D84909784A00D749885A1C
:103F8000202100F0E3FED44800784000D549085ACB
:103F900010210843D04909784900D24A5052D248EA
:103FA0000078C72802DD0020CF490870CF4800788C
:103FB0000A30CE4908700922C24801780078401CB6
:103FC000C04B1870C04842549021184602780078BF
:103FD000401C1870BC488154BF48007820305721DD
:103FE000081A1530C2B2184601780078401C1870C3
:103FF000B5484254B84A12785300B84AD15A00E042
:1040000020E0B54A1278203257239A1AAB4B9A5CBB
:104010009200AB4B985800F075FEC1B2A9480278E7
:104020000078401CA74B1870A748815418460078A8
:10403000C72802DD002019460870A4480078001D3A
:10404000A24908701021A248FCF72EFF00287DD05D
:10405000A0480830A0490978405C012876D19D48E5
:1040600008309D490978405C10210843994908317E
:10407000994A12788854984800784100974810303F
:10408000405A97490988884210DA934800784100DD
:1040900092481030405A92490988081A81B28E48D5
:1040A000007842008D481030815212E08A48007832
:1040B00041008A481030405A0021C943081A8849F3
:1040C0000988401881B28448007842008348103043
:1040D0008152814909784A0080491031885A282143
:1040E00000F034FE7C48007840007E49085A2021C8
:1040F00008437949097849007A4A50527A48007849
:10410000C72802DD002078490870784800780A3016
:104110007649087009226B4801780078401C694B89
:104120001870694842549021184602780078401C63
:104130001870654881546848007828305721081A5B
:104140001530C1B218460278007800E02AE0401C21
:1041500018705D488154604A127853005F4A1032EB
:10416000D15A5D4A1278283257239A1A534B9A5CD7
:104170009200534B985800F0C5FDC1B251480278E7
:104180000078401C4F4B18704F48815418460078F7
:10419000C72802DD0020194608704C480078001D31
:1041A0004A49087008214A48FCF77EFE00287DD065
:1041B0004848103048490978405C012876D1454884
:1041C000103045490978405C1021084341491031BD
:1041D000414A127888544048007841003F482030D6
:1041E000405A3F490988884210DA3B48007841002C
:1041F0003A482030405A3A490988081A81B236486C
:104200000078420035482030815212E03248007870
:10421000410032482030405A0021C943081A304931
:104220000988401881B22C48007842002B48203081
:104230008152294909784A0028492031885A302179
:1042400000F084FD2448007840002649085A4021A7
:104250000843214909784900224A505222480078EF
:10426000C72802DD002020490870204800780A3065
:104270001E4908700921134802780078401C114B30
:104280001870114881549021184602780078401C1B
:1042900018700D4881541048007830305721081AA2
:1042A0001530C2B218460178007800E044E0401CA6
:1042B000187005484254084A127819E01800002086
:1042C0007006002094060020880A00209506002031
:1042D00000040048D40800208E0600204C0900206D
:1042E0008C060020540B0020900600209106002030
:1042F0005300FE4AD15AFE4A1278303257239A1A96
:10430000FC4B9A5C9200FC4B985800F0FBFCC1B24D
:10431000FA4802780078401CF84B1870F84881542D
:1043200018460078C72802DD002019460870F548B5
:104330000078001DF34908700121C9030920C00657
:10434000FCF7B2FD00287DD0EF48E9490978405CD0
:10435000012877D1EC48E6490978405C10210843F0
:10436000E949E34A12788854E14800784100DF487F
:104370001030405AE5490988884210DADC48007854
:104380004100DA481030405AE0490988081A81B2E1
:10439000D74800784200D5481030815212E0D44806
:1043A00000784100D1481030405A0021C943081A12
:1043B000D6490988401881B2CD4800784200CB48E0
:1043C00010308152CA4909784A00C8491031885AC8
:1043D000382100F0BBFCC64800784000CC49085AA0
:1043E00080210843C24909784900C94A5052C94846
:1043F0000078C72802DD0020C6490870C64800784A
:104400000A30C54908700922BC4801780078401C70
:10441000BA4B1870BA484254902218460178007876
:10442000401C1870B6484254B148007838305721C3
:10443000081A1530C2B2184601780078401C18706E
:10444000AF4800E027E04254A94A12785300A74A37
:104450001032D15AA64A1278383257239A1AA54BED
:104460009A5C9200A44B985800F04CFCC2B2A3484E
:1044700001780078401CA14B1870A148425418469E
:104480000078C72802DD0020194608709D48007892
:10449000001D9C4908708021A048FCF705FD0028FC
:1044A0007ED09948083092490978405C012877D13C
:1044B000954808308E490978405C1021084392499C
:1044C00008318B4A1278885489480078410087481F
:1044D0002030405A8D490988884210DA8448007893
:1044E000410082482030405A88490988081A81B220
:1044F0007F48007842007D482030815212E07C489D
:104500000078410079482030405A0021C943081AF8
:104510007E490988401881B2754800784200734886
:1045200020308152724909784A0070492031885AF6
:10453000402100F00BFC6E48007840007449085A96
:10454000FF21013108436A4909784900704A5052F5
:1045500070480078C72802DD00206E4908706E4858
:1045600000780A306C4908700922644801780078A4
:10457000401C624B187062484254902218460178E1
:104580000078401C18705E4842545948007840300A
:104590005721081A1530C2B218460178007800E099
:1045A0002AE0401C187056484254514A1278530071
:1045B0004E4A2032D15A4E4A1278403257239A1A24
:1045C0004C4B9A5C92004C4B985800F09BFBC1B24C
:1045D0004A4802780078401C484B1870484881547B
:1045E00018460078C72802DD0020194608704548A3
:1045F0000078001D4349087040214848FCF754FCEE
:10460000002871D04048103039490978405C0128B1
:104610006AD13D48103000E080E235490978405CBD
:104620001021084338491031314A127888543048F3
:10463000007841002D483030405A3449098888427A
:1046400010DA2B480078410028483030405A2F4972
:104650000988081A81B22648007842002348303081
:10466000815212E022480078410020483030405A00
:104670000021C943081A25490988401881B21C48FD
:1046800000784200194830308152194909784A00AF
:1046900016493031885A482100F058FB14480078F8
:1046A00040001B49085A0121490208431049097872
:1046B0004900174A505217480078C72802DD0020E9
:1046C00014490870144800780A3013490870092109
:1046D0000A4802780078401C084B1870084881543A
:1046E0009021184602781BE053E000006C0900207E
:1046F0008E0600201800002070060020940600207E
:10470000880A002095060020EC0800208C06002076
:10471000540B002090060020910600200014004851
:104720000078401C1870FE488154FE4800784830DC
:104730005721081A1530C1B2184602780078401C7B
:104740001870F7488154F74A12785300F64AD15A44
:10475000F44A1278483257239A1AF44B9A5C920022
:10476000F34B985800F0CEFAC1B2F24802780078C4
:10477000401CF04B1870EA48815418460078C7284E
:1047800002DD002019460870EB480078001DEA4958
:104790000870012109030920C006FCF785FB0028E9
:1047A0007ED0E648DF490978405C012878D1E348AB
:1047B000DC490978405C10210843E049D94A127865
:1047C0008854D84800784100D7481030405ADC4916
:1047D0000988884210DAD34800784100D248103066
:1047E000405AD7490988081A81B2CE480078420059
:1047F000CD481030815212E0CA4800784100CA48C2
:104800001030405A0021C943081ACD490988401880
:1048100081B2C44800784200C34810308152C14977
:1048200009784A00C0491031885A502100F08EFAA8
:10483000BC4800784000C349085A01218902084356
:10484000B84909784900BF4A5052BF480078C72884
:1048500002DD0020BC490870BC4800780A30BB4922
:1048600008700921B34802780078401CB14B1870D9
:10487000AB4881549021184602780078401C18708B
:10488000A7488154A748007850305721081A15309E
:10489000C1B2184602780078401C1870A04800E0A9
:1048A00027E081549F4A127853009F4A1032D15A10
:1048B0009C4A1278503257239A1A9C4B9A5C920069
:1048C0009B4B985800F01EFAC2B29A4801780078C3
:1048D000401C984B18709248425418460078C728DC
:1048E00002DD00201946087093480078001D9249A7
:1048F00008708C480078401CC0B28A4908700728AC
:104900001BDD00200870012149029148FCF7D5FA0F
:1049100090480078C0438F4908708F480078401C49
:10492000C0B28D490870632807DD03228B498C488B
:10493000FBF7B8FF0020884908707A480078FEF736
:1049400085F97D480078002834D086480078002812
:1049500030D185480078784909784018C82805DDA5
:1049600081480078C821081AC4B201E0724804786E
:1049700001207C4908706A487B4A127881182246D7
:104980007A48FDF7B3FB002810D17748007800196A
:104990007549087008460078C72801DD00200870B6
:1049A00065480078001B6449087002E000206D49EA
:1049B000087000BF65480078002834D06C48007843
:1049C000002830D16B480078604909784018C82821
:1049D00005DD68480078C821081AC4B201E05B48C8
:1049E00004780120624908706348624A127881188D
:1049F00022466248FDF77AFB002810D15D48007816
:104A000000195C49087008460078C72801DD0020BD
:104A100008704E480078001B4C49087002E00020E6
:104A20005349087000BF56480078002876D000200F
:104A3000534908705348FEF7AEF90446D920800068
:104A400084421CDD50480078C007C00F002851D0B8
:104A50007F214020FEF7C6F84B4800784008400010
:104A6000494908707F214020FEF7BCF87F21402093
:104A7000FEF7B8F8D9208000444908803AE0F82CC5
:104A80001BDA4148007802210840002832D000217A
:104A90004020FEF7A7F83C480078022188433A49B5
:104AA000087000214020FEF79DF800214020FEF70D
:104AB00099F8F820354908801CE034480088001D2A
:104AC000844204DC31480088001FA04212DD2F48D8
:104AD00004802546E017400E4019C011C001201A7D
:104AE000C1B24020FEF77EF8274800780321084332
:104AF000254908702648FEF74EF90446D920800063
:104B0000844259DD2048007804210840002852D012
:104B10007F214220FEF766F81B483BE0E8E00000FA
:104B2000880A00208E0600209C0900201800002022
:104B3000700600209406002095060020040900203D
:104B40008C060020540B00209006002091060020C7
:104B5000000400488F06002099060020640B002006
:104B6000E00600209606002097060020D4070020CB
:104B70009206002093060020BC0900206407002054
:104B8000A1060020700B0020A20600209A0600203B
:104B90007C0B0020007804218843564908707F214F
:104BA0004220FEF71FF87F214220FEF71BF8D92094
:104BB0008000514908803AE0F82C1BDA4D48007813
:104BC00008210840002832D000214220FEF70AF8D0
:104BD000484800780821884346490870002142204F
:104BE000FEF700F800214220FDF7FCFFF8204249C3
:104BF00008801CE040480088001D844204DC3E48D8
:104C00000088001FA04212DD3B4804802546E017C3
:104C1000400E4019C011C001201AC1B24220FDF758
:104C2000E1FF344800780C210843324908703348CA
:104C3000FEF7B1F80446D920800084421CDD2D48DF
:104C4000007810210840002851D07F214320FDF733
:104C5000C9FF2848007810218843264908707F2121
:104C60004320FDF7BFFF7F214320FDF7BBFFD92085
:104C70008000234908803AE0F82C1BDA1D480078B0
:104C800020210840002832D000214320FDF7AAFF50
:104C900018480078202188431649087000214320D5
:104CA000FDF7A0FF00214320FDF79CFFF8201449E9
:104CB00008801CE012480088001D844204DC104873
:104CC0000088001FA04212DD0D4804802546E01731
:104CD000400E4019C011C001201AC1B24320FDF797
:104CE00081FF04480078302108430249087000BF62
:104CF000FEF794F8A20600209C060020880B0020F6
:104D00009E06002030B503460A461C46DD1DF935D7
:104D100018E0281B8010400001190888904208DC28
:104D200008464038C08F904203DDC81AC003000C0B
:104D300030BD0888904201DD8C1C03E00888904259
:104D400000DA0D46AC42E4D30020F1E7F8B507469F
:104D50000D4600266D4909785722511A481B0A2131
:104D6000FBF7D6F93030C1B2694802780078401CB0
:104D7000674B187067488154644909785722511A63
:104D8000481B0A21FBF7C4F93031614802780078EA
:104D9000401C5F4B18705F488154202118460278F0
:104DA0000078401C18705B48815400975A4900985D
:104DB000FBF7AEF9C4B258490098FBF7A9F988B2DD
:104DC0000090002C0CD020463030C1B25048027800
:104DD0000078401C4E4B18704E488154012608E064
:104DE00020214B4802780078401C494B18704948F4
:104DF00081547D21C9000098FBF78AF9C4B27D2156
:104E0000C9000098FBF784F988B20090002C01D10A
:104E1000002E0CD020463030C1B23D4802780078D8
:104E2000401C3B4B18703B488154012608E0202170
:104E3000374802780078401C354B1870354881544B
:104E400064210098FBF764F9C4B264210098FBF771
:104E50005FF988B20090002C01D1002E0CD02046C2
:104E60003030C1B22A4802780078401C284B1870B4
:104E700028488154012608E020212548027800783E
:104E8000401C234B1870234881540A210098FBF7DB
:104E90003FF9C4B20A210098FBF73AF988B20090B2
:104EA000002C01D1002E0BD020463030C1B2184862
:104EB00002780078401C164B18701648815408E0A0
:104EC0002021134802780078401C114B18701148BB
:104ED000815400983030C1B20D4802780078401CEF
:104EE0000B4B18700B4881540D211846027800783E
:104EF000401C1870074881540A211846027800782F
:104F0000401C187003488154F8BD00008E06002034
:104F100090060020BC0900201027000000000000BF
:104F20000102030401020304060708094C4F0008AC
:104F300000000020A40600005C010008B450000836
:104F4000A4060020F4080000D42B00082200016011
:104F500004127A0001100C0102030406070809017B
:104F6000020103510501110C330304028105D10C28
:104F7000100506050605037107610C00FF0030757A
:104F8000457459736E7282719770AB6FC06ED56D38
:104F9000E96CFE6B126B276A3B695068656779663E
:104FA0008E65A264B763CB62E061F46009601E5F46
:104FB000325E475D5B5C705B845A9959AE58C2574C
:104FC000D756EB550055145429533E525251675051
:104FD0007B4F904EA44DB94CCE4BE24AF7490B495A
:104FE0002048344749465D45724487439B42B0415F
:104FF000C440D93FED3E023E173D2B3C403B543A66
:1050000069397D389237A736BB35D034E433F9326D
:105010000D32223137304B2F602E742D892C9D2B71
:10502000B22AC629DB28F027042719262D25422479
:1050300056236B2280219420A91FBD1ED21DE61C81
:10504000FB1B101B241A39194D18621776168B1585
:10505000A014B413C912DD11F21006101B0F2F0E8D
:10506000440D590C6D0B820A9609AB08BF07D40694
:10507000E905FD04120426033B024F0107FF64000B
:105080000005FF0005FF0005FF0005FA0030057070
:10509000000020041201041202041203041204048A
:1050A0001C040500208A067EFF89063300F40221D5
:0450B00001000000FB
:04000005080000B53A
:00000001FF
