:020000040800F2
:10000000980F0020C9000008D1000008D3000008A4
:1000100000000000000000000000000000000000E0
:10002000000000000000000000000000D5000008F3
:100030000000000000000000D7000008792400083C
:10004000DB00000800000000DB000008DB00000807
:10005000DB000008DB000008D9030008DB00000813
:10006000000000001D03000889030008A103000828
:10007000DB000008DB000008DB00000800000000D7
:10008000752500080000000000000000DB000008EB
:10009000DB000008DB000008DB000008DB000008D4
:1000A000DB000008DB000008DB000008612B000813
:1000B000712B00080348854600F02AF800480047E5
:1000C000792E0008980F0020044880470448004714
:1000D000FEE7FEE7FEE7FEE7FEE7FEE70125000894
:1000E000B500000830B50B4601460020202201244F
:1000F00009E00D46D5409D4205D31D469540491B5C
:100100002546954040191546521E002DF1DC30BDA4
:10011000064C0125064E05E0E36807CC2B430C3C5A
:1001200098471034B442F7D3FFF7C8FF5045000892
:100130007045000870B58D180478401CA207920F16
:1001400001D10278401C231106D10378401C03E042
:1001500006780E70401C491C521EF9D1002B15D098
:1001600002780C268A1A3440401C0C2C03D0A401BF
:10017000121B9B1C08E004782402121B401CF8E7A9
:1001800014780C70491C521C5B1EF9D5A942D3D3BC
:10019000002070BD70B505466C6A606C5021084047
:1001A000002835D1606C0121490208436064206851
:1001B000C068032189020840002825D1206A002850
:1001C00022D1206800680821084008281CD1206836
:1001D000806804210840800800280DD1206840680C
:1001E0000C21884321684860606CFF2101318843FD
:1001F00001210843606407E0606C202108436064CB
:10020000A06C01210843A064204600F00DFA03E031
:10021000E06B016B2846884770BD70B505466C6A77
:10022000606C402108436064A06C04210843A06412
:10023000204600F0FBF970BD70B50446656A28469B
:1002400000F0F3F970BD000038B504460025002029
:100250000090206880688007800F01280ED12068F8
:100260000068C007C00F002806D12068C0680121BF
:10027000C9030840884201D1012000E00020002885
:1002800043D12068806822490840002801D101201C
:1002900000E00020002809D1606C10210843606450
:1002A000A06C01210843A064012038BD206880684B
:1002B0000121084321688860164917480068FFF744
:1002C00011FF009002E00098401E00900098002866
:1002D000F9D100F0E9FD05460EE000F0E5FD401B18
:1002E000022809D9606C102108436064A06C0121C8
:1002F0000843A0640120D8E720680068C007C00F49
:100300000121484048400028E7D00020CDE7000008
:100310001700008040420F000400002010B5134871
:1003200000F00CFB12480088124909784900124A73
:1003300050520F4840880F49097849000F4A5052DF
:100340000B4880880B49097849000D4A50520948EA
:100350000078401CC0B207490870052804DD002061
:10036000087001200749087010BD00002C0700200C
:10037000640B0020A0060020700B00207C0B0020E6
:10038000880B0020A106002010B5034800F0D6FA23
:1003900000200249087010BD440800209206002089
:1003A00010B5034800F0CAFA00200249087010BDD9
:1003B0007C0800209606002010B50468636044683D
:1003C000102C04D10468A2600468E16003E00468B2
:1003D000A1600468E26010BD10B5082000F048FC80
:1003E00010BD70B504460025002600BF4020005D0A
:1003F000012801D1022070BD01214020015500BF1C
:10040000206880688007800F01280CD12068006870
:100410000840002805D12068C068C9030840884208
:1004200001D1012000E0002000282FD1606CFF21C5
:10043000013188430221084360642068806889078D
:1004400008432168886000F02FFD064611E000F0A7
:100450002BFD801B02280CD9606C022188431021DF
:100460000843606400BF00214020015500BF012007
:10047000C1E720688068C00FC0070028E7D1606C22
:100480000221884301210843606404E0606C20215C
:1004900008436064012500BF00214020015500BFD2
:1004A0002846A8E7F8B504460D460026002000902F
:1004B00001210907A06B884215D0A06B012812D03A
:1004C000A06B02280FD0A06B03280CD0A06B0428CF
:1004D00009D0A06B052806D0A06B062803D0A06B1E
:1004E000072800D000BF00BF4020005D012801D1D7
:1004F0000220F8BD01214020015500BF206880681E
:10050000042108408008002879D14349686888425E
:100510005AD02068806A2A780121914008432168D6
:10052000886201210907A06B884229D0A06B0128AD
:1005300026D0A06B022823D0A06B032820D0A06B6C
:1005400004281DD0A06B05281AD0A06B062817D050
:10055000A06B072814D0A868216849694907490F8A
:1005600088420DD020684069C008C00021684861F9
:1005700020684069297A4907490F08432168486182
:100580002868102802D0286811283DD123488068A7
:100590002968102901D1C90400E0112108431F492D
:1005A0008860286810282FD11D491E480068FFF771
:1005B00099FD0A214843009002E00098401E0090F7
:1005C00000980028F9D11FE02068806A2A7801216C
:1005D00091408843216888622868102802D02868E2
:1005E000112811D10D4880682968102902D1C90449
:1005F00001E004E0112188430849886004E0606C50
:10060000202108436064012600BF002140200155DD
:1006100000BF30466DE700000110000000270140D8
:1006200040420F00040000207047704770470000F0
:1006300070B5044600260025002C01D1012070BDB4
:10064000606C002806D1A06400214020015520469E
:1006500000F0C6F8606C1021084000287ED1002E02
:10066000FCD1206880680421084080080028F5D16A
:10067000606C8901884302210843606420688068B7
:100680008007800F01280DD120680068C007C00FC7
:10069000002805D12068C06889030840884201D13C
:1006A000012000E0002000280FD12068C068182138
:1006B0008843A16808432168C860206800698000F9
:1006C000800861680843216808612068C068424961
:1006D00008402168C860A0698003E169C903084334
:1006E000216A49030843616B012902D001210903F2
:1006F00000E000210843E16808432169022901D193
:10070000042100E000210843216B49000843054310
:10071000606A012805D1206A002802D10120000466
:100720000543FF21C231A06A884203D0E16AA06A72
:10073000084305432068C06828432168C860012138
:100740000907A06B884216D0A06B012813D0A06BBC
:10075000022810D0A06B03280DD000E034E0A06B7D
:10076000042808D0A06B052805D0A06B062802D06D
:10077000A06B07280DD120684069C008C00021681F
:10078000486120684069218F4907490F0843216863
:1007900048612068C06811490840A84208D100207B
:1007A000A064606C0221884301210843606410E06A
:1007B000606C02218843102108436064A06C012111
:1007C0000843A064012604E0606C102108436064C3
:1007D0000126304633E700001902FEFFE7FF3F83A2
:1007E00010B586B004462049206888423AD100BF3F
:1007F0001E488069491508431C498861084680697C
:1008000049150840009000BF00BF802001900320E0
:1008100002900020039001A90920C00600F038FAD8
:100820000320019002900020039001A9104800F0DD
:100830002FFA1048104908600020486000210E4837
:1008400081608021C16049000161890041612021EE
:1008500081610021C16100F0A3F900BF0648E06397
:10086000446200BF06B010BD0024014000100240E9
:1008700000040048080002402C070020F8B5044698
:100880000D4616460027206880680421084080082D
:10089000002848D100BF4020005D012801D102207E
:1008A000F8BD01214020015500BFE069012803D0B7
:1008B0002046FFF7C9FC0746002F35D1606C1B4965
:1008C0000840FF210131084360640020A06400BF9C
:1008D00000214020015500BF1548E16B8862154892
:1008E000E16BC8621448E16B08631C202168086052
:1008F0002068406810210843216848602068C0686B
:10090000012108432168C8602268114640313346FE
:100910002A46E06B00F072F92068806804210843E1
:100920002168886000E002273846B9E7FEF1FFFF42
:1009300095010008390200081B02000810B50446A2
:1009400096480068954A08322168914201D10821F1
:1009500017E0924A1C322168914201D1802110E0B7
:100960008E4A30322168914201D1C91409E08B4A84
:1009700044322168914202D10121C90301E00121E1
:10098000C904084000283ED02068006808210840BB
:10099000C008002837D020680068884321680860B4
:1009A0007E4908312068884201D1082017E07B4940
:1009B0001C312068884201D1802010E07749303115
:1009C0002068884201D1C01409E07449443120688C
:1009D000884202D10120C00301E00120C0046F4918
:1009E0004860606B012108436063042121200155A8
:1009F00000BF00212020015500BF206B002802D03D
:100A00002046216B884765480068644A083221689F
:100A1000914201D1042117E0604A1C3221689142C1
:100A200001D1402110E05D4A30322168914201D16C
:100A3000091509E0594A44322168914202D1012145
:100A4000890301E001218904084000283CD0206886
:100A50000068042108408008002835D0206800681C
:100A600020210840002805D120680068042188431F
:100A700021680860494908312068884201D1042072
:100A800017E046491C312068884201D1402010E01F
:100A9000424930312068884201D1001509E03F49C0
:100AA00044312068884202D10120800301E0012006
:100AB00080043A494860112121200155E06A00284C
:100AC00002D02046E16A884734480068334A083239
:100AD0002168914201D1022117E0304A1C3221687D
:100AE000914201D1202110E02C4A303221689142FC
:100AF00001D1491509E0294A44322168914202D1C5
:100B00000121490301E0012149040840002843D0A4
:100B10002068006802210840400800283CD0206876
:100B2000006820210840002805D1206800680221C3
:100B3000884321680860194908312068884201D13A
:100B4000022017E015491C312068884201D120207D
:100B500010E0124930312068884201D1401509E087
:100B60000E4944312068884202D10120400301E04F
:100B70000120400409494860606B60630121212025
:100B8000015500BF00212020015500BFA06A0028A8
:100B900002D02046A16A884710BD00000000024034
:100BA00001460022002901D1012070472120405C2C
:100BB000002802D100232020435402232120435443
:100BC000086802680C4802408B6848681843CB6884
:100BD00018430B6918434B6918438B691843CB6959
:100BE0001843024308680260002048630123212063
:100BF00043540020D9E700000FC0FFFFF8B50446BA
:100C00000D4616461F4600BF2020005D012801D179
:100C10000220F8BD01212020015500BF0221212022
:100C200001552068006840084000216808603B4684
:100C3000324629462046FFF7BFFB206800680221A4
:100C4000084321680860206800680421084321687F
:100C5000086020680068082108432168086020684F
:100C6000006801210843216808600020D1E770472F
:100C700010B50446054840692040002804D00348C8
:100C800044612046FFF7F3FF10BD0000000401405F
:100C900078B50346002200240020DEE001269640BD
:100CA0000D6835402C46002C7ED04D68022D02D0B8
:100CB0004D68122D15D1D508AE001D462035A85916
:100CC0005507EE0E0F25B5400646AE433046560793
:100CD000F60E0D69B5402843D508AD001E462036F6
:100CE0007051186856000325B5400646AE4330469D
:100CF0000D79AD07AD0F5600B540284318604D681B
:100D0000012D08D04D68022D05D04D68112D02D05F
:100D10004D68122D18D1986856000325B540064637
:100D2000AE4330465600CD68B540284398605868B9
:100D3000012595400646AE43304610264D683540A5
:100D40002D09954028435860D86856000325B540C2
:100D50000646AE43304656008D68B5402843D860FD
:100D6000012636074D683540B54275D100BF3E4D6E
:100D7000AD69012635433C4EB5613546AD69ED0799
:100D8000ED0F009500BF00BF384D9608B600A8597A
:100D900095072E0F0F25B5400646AE433046092570
:100DA000ED06AB4203D100E056E000250FE0304DE8
:100DB000AB4201D101250AE02E4DAB4201D1022503
:100DC00005E02D4DAB4201D1032500E00525960736
:100DD000360FB5402843254D9608B600A851274D3B
:100DE00028680546A5432846012636044D68354047
:100DF000B54202D1054625432846204D2860686843
:100E00000546A5432846012676044D683540B5427F
:100E100002D1054625432846184D6860A868054656
:100E2000A5432846012636054D683540B54202D116
:100E3000054625432846114DA860E8680546A543A8
:100E40002846012676054D683540B54202D1054653
:100E500025432846094DE860521C0D68D540002DF9
:100E600000D01BE778BD00000010024008000140E0
:100E70000004004800080048000C0048000401403D
:100E8000024613690B40002B01D0012000E0002036
:100E9000704742694A4042617047002A01D081612F
:100EA00000E0816270470000014800687047000060
:100EB0000000002002480068401C0149086070479B
:100EC0000000002010B506480068102108430449BE
:100ED0000860002000F006F800F018F8002010BDAF
:100EE0000020024070B5044600F0FAF906467D2164
:100EF000C900FFF7F7F8054600F066FD002221461D
:100F0000501E00F027F8002070BD000008B500BF9B
:100F100009488069012108430749886108468069BA
:100F2000C007C00F009000BF00BF00221146501E36
:100F300000F010F808BD00000010024000BFC2061B
:100F4000D20E01219140024A116000BF704700009B
:100F500000E100E070B504460D46164629462046DD
:100F600001F04EFA70BD0000F8B5044600250026D9
:100F70000121090420680840884266D14148006A7E
:100F800003210902084003221202616811408842CD
:100F90005BD000BF3B48C0690121090708433949BC
:100FA000C8610846C06909040840009000BF00BF3E
:100FB000354800680915084333490860FFF774FF96
:100FC000054606E0FFF770FF401B642801D90320A7
:100FD000F8BD2D480068FF21013108400028F1D0FC
:100FE0002848006A03210902884306462548006A0A
:100FF000012109040843234908620846006A0121C7
:10100000090488431F4908620846066202203040EE
:10101000002811D0FFF748FF054607E0FFF744FF1F
:10102000401B1A49884201D90320D1E71548006ABC
:10103000022108400028F1D01248006A0321090269
:101040008843616808430F4908622078C007C00FD1
:10105000002807D00B48006B80088000A168084377
:1010600008490863202120680840202807D1054846
:10107000006B10218843E16808430249086300209F
:10108000A6E7000000100240007000408813000036
:1010900070B504460D4600268E480068C007C00F94
:1010A000A84271D28B480068400840002843894913
:1010B000086008460068C007C00FA84201D00120A0
:1010C00070BD022120680840022807D1824840688C
:1010D000F0218843A16808437F4948602078C00711
:1010E000C00F00283CD06068012808D17A48006809
:1010F000012149040840002815D10120E0E760687B
:10110000022808D1744800680121490608400028D7
:1011100009D10120D4E77048006802210840002866
:1011200001D10120CCE76C484068800880006168EC
:10113000084369494860FFF7B7FE06466068012822
:101140000FD107E0FFF7B0FE801B6449884201D948
:101150000320B5E7604840680C2108400428F1D11D
:10116000A4E06068022810D107E0FFF79DFE801B15
:101170005A49884201D90320A2E7574840680C2108
:1011800008400828F1D191E00FE007E0FFF78CFE5E
:10119000801B5249884201D9032091E74E4840689C
:1011A0000C2108400028F1D180E00221206808408D
:1011B000022807D148484068F0218843A1680843C5
:1011C000454948602078C007C00F00285FD060689C
:1011D000012808D14048006801214904084000283E
:1011E00015D101206CE76068022808D13A480068F0
:1011F000012149060840002809D1012060E736484E
:10120000006802210840002801D1012058E7324837
:10121000406880088000616808432F494860FFF7F4
:1012200043FE0646606801280FD107E0FFF73CFE49
:10123000801B2A49884201D9032041E7264840689B
:101240000C2108400428F1D121E0606802280FD168
:1012500007E0FFF729FE801B2049884201D90320BF
:101260002EE71D4840680C2108400828F1D10EE007
:1012700007E0FFF719FE801B1849884201D90320B7
:101280001EE7154840680C2108400028F1D111489C
:1012900000684008400028430E490860084600687E
:1012A000C007C00FA84201D0012009E7042120682F
:1012B0000840042808D108484068072109028843EB
:1012C000E1680843044948600020FFF70BFE002056
:1012D000F6E60000002002400010024088130000E3
:1012E00010B500F025F806494968F02211400909B7
:1012F000044A515CC840044908600846006810BDB3
:1013000000100240404500080400002010B5FFF71F
:10131000E7FF05494968072212021140090A034AFA
:10132000515CC84010BD000000100240404500085C
:10133000F0B589B024A001460EC9C06805AC0EC442
:10134000089025A001460EC9C06801AC0EC40490E7
:101350000024002700250026002000902248446831
:101360000C202040002827D0042802D0082822D1B1
:1013700002E01E48009022E00F2080042040800CF4
:1013800005A90E5C1848C06A0007000F01A90F5C90
:1013900001200004204001210904884206D1394679
:1013A0001248FEF79FFE7043054602E0104835469E
:1013B0004543009503E000BF0C48009000BF00BF0C
:1013C000009809B0F0BD00000203040506070809F3
:1013D0000A0B0C0D0E0F101001020304050607087E
:1013E000090A0B0C0D0E0F100010024000127A00BB
:1013F00000093D0038B5044600252078C007C00F1D
:1014000000286FD0FE4840680C21084004280BD00B
:10141000FB4840680840082812D1F948406801217B
:101420000904084088420BD1F548006801214904AD
:1014300008400028E5D06068002853D1012038BD5D
:1014400000BFEF480068012109048843EC490860A7
:1014500008460068012189048843E949086000BF03
:10146000FFF722FD054607E0FFF71EFD401BE5499B
:10147000884201D90320E2E7E148006801214904DC
:1014800008400028F0D100BF6068012806D1DC4880
:10149000006849100843DA49086032E060680028B3
:1014A0000ED1D7480068012109048843D449086057
:1014B00008460068012189048843D149086020E07A
:1014C000606805280FD1CE480068012189040843CF
:1014D000CB49086008460068012109040843C8494F
:1014E00008600EE038E0C64800680121090488431E
:1014F000C349086008460068012189048843C0493F
:10150000086000BF6068002813D0FFF7CDFC0546D7
:1015100007E0FFF7C9FC401BBA49884201D9032004
:101520008DE7B74800680121490408400028F0D041
:1015300012E0FFF7B9FC054607E0FFF7B5FC401BDA
:10154000B049884201D9032079E7AD4800680121FC
:10155000490408400028F0D10221206808400228F0
:1015600061D1A74840680C21084000280BD0A4484E
:101570004068084008281BD1A1484068012109049F
:101580000840002814D19E48006802210840002825
:1015900004D0E068012801D0012050E79848006895
:1015A000F82188432169C9000843954908603AE059
:1015B000E068002820D09248006801210843904943
:1015C0000860FFF771FC054606E0FFF76DFC401B65
:1015D000642801D9032032E78948006802210840C5
:1015E0000028F2D086480068F82188432169C900A4
:1015F00008438349086016E08148006840084000BD
:101600007F490860FFF750FC054606E0FFF74CFCF9
:10161000401B642801D9032011E7794800680221A2
:1016200008400028F2D1082120680840082831D15C
:10163000206A002817D07248406A01210843704987
:101640004862FFF731FC054606E0FFF72DFC401B22
:10165000642801D90320F2E66948406A0221084063
:101660000028F2D016E06648406A4008400064490D
:101670004862FFF719FC054606E0FFF715FC401B22
:10168000642801D90320DAE65D48406A0221084057
:101690000028F2D1042120680840042870D100BF3E
:1016A0005748C069890608435549C8610846C0695A
:1016B00009040840009000BF00BF534800680915A6
:1016C000084351490860FFF7EFFB054606E0FFF7C6
:1016D000EBFB401B642801D90320B0E64A480068B0
:1016E000FF21013108400028F1D000BF4448006AC2
:1016F00040084000424908620846006A04218843C5
:101700003F49086200BFFFF7CFFB054607E0FFF740
:10171000CBFB401B3B49884201D903208FE6384868
:10172000006A022108400028F1D100BFA06801280A
:1017300006D13348006A01210843314908622CE090
:10174000A06800280CD12E48006A400840002C49AF
:1017500008620846006A04218843294908621CE09F
:10176000A06805280DD12648006A042108432449B1
:1017700008620846006A01210843214908620CE01A
:1017800034E01F48006A400840001D4908620846CE
:10179000006A042188431A49086200BFA068002833
:1017A00012D0FFF781FB054607E0FFF77DFB401BEA
:1017B0001449884201D9032041E61148006A0221F8
:1017C00008400028F1D011E0FFF76EFB054607E066
:1017D000FFF76AFB401B0B49884201D903202EE624
:1017E0000748006A022108400028F1D11021206832
:1017F0000840102860D1606901282DD1004805E01B
:10180000001002408813000000700040406B04216B
:101810000843624948630846406B012108435F4919
:101820004863FFF741FB054606E0FFF73DFB401B21
:10183000642801D9032002E65848406B0221084081
:101840000028F2D05548406BF8218843A169C900AF
:101850000843524948632FE06069401D00280FD1BA
:101860004E48406B042188434C4948630846406B0E
:10187000F8218843A169C9000843484948631BE02F
:101880004648406B04210843444948630846406B7E
:10189000400840004863FFF707FB054606E0FFF7F6
:1018A00003FB401B642801D90320C8E53B48406B7B
:1018B000022108400028F2D1606A00286CD0374825
:1018C00040680C210840082864D0606A022847D18B
:1018D0003248006801210906884330490860FFF753
:1018E000E3FA054606E0FFF7DFFA401B642801D95A
:1018F0000320A4E529480068012149060840002882
:10190000F1D100BF2548C06A00090001216B0843DE
:101910002249C862A16AE06A0843204949683D2219
:101920001204914308431D49486000BF08460068FF
:1019300001210906084319490860FFF7B5FA054671
:1019400006E0FFF7B1FA401B642801D9032076E5D1
:10195000124800680121490608400028F1D01BE028
:101960000E4800680121090688430C490860FFF70A
:101970009BFA054606E0FFF797FA401B642801D959
:1019800003205CE50548006801214906084000285D
:10199000F1D101E0012052E5002050E500100240A5
:1019A000042806D10649096904221143044A116139
:1019B00005E00349096904229143014A1161704716
:1019C00000E000E07047000070B504462546681E40
:1019D0000949884201D901200CE0681E0749486185
:1019E0000321081F00F00CFD002004498861072036
:1019F0000861002070BD0000FFFFFF0000E000E074
:101A000010B5FFF7DFFF10BD70477047024600BFFB
:101A10003820805C012801D1022070470123382042
:101A2000835400BF02233920835410684068702318
:101A3000984313685860106840680B68184313682F
:101A40005860106880688023984313689860106815
:101A500080684B68184313689860012339208354C9
:101A600000BF00233820835400BF0020D5E710B505
:101A70000446002C01D1012010BD3920005D002852
:101A800005D1002138200155204600F00DF8022133
:101A900039200155211D206800F07AFD01213920EF
:101AA00001550020E8E7000038B504460D492068DC
:101AB000884215D100BF0C48C069022108430A4979
:101AC000C8610846C06902210840009000BF00BFFD
:101AD000002211461020FFF73DFA1020FFF72EFAE2
:101AE00038BD00000004004000100240F8B5044674
:101AF0000D46002600BF3820005D012801D10220DC
:101B0000F8BD01213820015500BF022139200155BF
:101B1000206886687721304688430646FF210902FF
:101B200030468843064620688660286850283ED0A4
:101B30000CDC202863D004DC002856D0102868D1A3
:101B400058E0302860D0402863D144E0602838D085
:101B500070280DD001210903401A02D0401A58D133
:101B600017E020688068C008C0002168886051E0E4
:101B7000EB686A68A968206800F054FD20688668F0
:101B800077213046884306467720064320688660E2
:101B900040E0EB686A68A968206800F043FD2068AF
:101BA00080680121890308432168886032E0EA687F
:101BB0006968206800F052FD5021206800F041FD66
:101BC00028E0EA686968206800F063FD6021206809
:101BD00000F037FD1EE0EA686968206800F03EFD0D
:101BE0004021206800F02DFD14E00021206800F065
:101BF00028FD0FE01021206800F023FD0AE02021DD
:101C0000206800F01EFD05E03021206800F019FD7D
:101C100000E000BF00BF01213920015500BF0021B5
:101C20003820015500BF00206AE7704710B5044610
:101C30002068006902210840400800281CD0206864
:101C4000C06808404008002816D0481F2168086175
:101C500001202076206880698007800F002803D04B
:101C60002046FFF7E2FF05E0204600F0C3F82046DB
:101C700000F0C1F8002020762068006904210840A7
:101C8000800800281DD02068C0680840800800280F
:101C900017D0C84321680861022020762068806937
:101CA000032109020840002803D02046FFF7BDFFAA
:101CB00005E0204600F09EF8204600F09CF8002049
:101CC00020762068006908210840C00800281CD040
:101CD0002068C0680840C008002816D0C8432168A2
:101CE0000861042020762068C0698007800F0028E2
:101CF00003D02046FFF799FF05E0204600F07AF870
:101D0000204600F078F80020207620680069102135
:101D10000840000900281DD02068C068084000095C
:101D2000002817D0C8432168086108202076206861
:101D3000C069032109020840002803D02046FFF7AC
:101D400074FF05E0204600F055F8204600F053F8F7
:101D50000020207620680069C007C00F012148409C
:101D6000484000280CD02068C068084048404840DF
:101D7000002805D0C81E21680861204600F03CF804
:101D80002068006980210840C00900280BD0206825
:101D9000C0680840C009002805D0C8432168086110
:101DA0002046FFF731FE2068006940210840800985
:101DB00000280BD02068C06808408009002805D0A2
:101DC000C84321680861204600F017F820680069C0
:101DD00020210840400900280BD02068C068084036
:101DE0004009002805D0C843216808612046FFF754
:101DF0000CFE10BD7047704770477047704710B5B4
:101E000004462068C069C007C00F00280FD02068B2
:101E10000068FF2101310840002808D00120216816
:101E20000862E06E01210843E066692001552068E0
:101E3000C0690221084000280FD020688068C007D0
:101E4000C00F002809D0022021680862E06E04213A
:101E50000843E0660121692001552068C06904211A
:101E6000084000280FD020688068C007C00F0028F5
:101E700009D0042021680862E06E02210843E06670
:101E80000121692001552068C06908210840002807
:101E90000FD020688068C007C00F002809D0082034
:101EA00021680862E06E08210843E066012169208C
:101EB0000155E06E002802D02046FFF79FFF206802
:101EC000C0692021084000280DD020680068084023
:101ED000002808D0204600F0D4FC20688069082142
:101EE0000843216888612068C06980210840002873
:101EF00007D0206800680840002802D0204600F083
:101F0000F1FD2068C06940210840002807D0206802
:101F100000680840002802D0204600F094FC10BD64
:101F200010B50446002C01D1012010BDA069002885
:101F300000D000E000BF6920005D002805D100212D
:101F400068200155204600F02DF802216920015536
:101F5000206800684008400021680860204600F0C2
:101F6000E5FC012800D1E0E7606A002802D02046A5
:101F700000F0AAFB206840680921C9028843216853
:101F80004860206880682A2188432168886020682A
:101F900000680121084321680860204600F00CFC1D
:101FA000C3E7000010B586B004463F492068884268
:101FB00035D100BF3D4880690121890308433B4971
:101FC000886108468069012189030840009000BFAC
:101FD00000BF0320400201900220029001200390E4
:101FE000032004900120059001A90920C006FEF7F6
:101FF0004FFE2F482F4908601020486000212D48CF
:1020000081608021C1600021016141618161C16104
:10201000FEF7C6FD00BF27482066446241E026491E
:10202000206888423DD100BF2048C0690121490491
:1020300008431E49C8610846C06901214904084097
:10204000009000BF00BF0C200190022002900120F0
:102050000390032004900120059001A90920C006E7
:10206000FEF716FE12482830144908601020486018
:102070000021124881608021C1600021016141611D
:102080008161C161FEF78CFD00BF0C48206644628F
:1020900000BF002211461C20FEF75CFF1C20FEF74B
:1020A0004DFF06B010BD0000003801400010024096
:1020B0001C00024044080020004400407C0800202E
:1020C00070470000F7B5044615466920005D0128F9
:1020D00003D06920005D222846D10198002801D054
:1020E000002D01D10120FEBD00BF6820005D012848
:1020F00001D10220F7E701216820015500BF0198B6
:10210000E06450200553522005530020E06669200A
:10211000005D222803D132216920015502E01221FD
:10212000692001551148216E88621148216EC862EC
:102130001048216E086301AE23681A4628323168C0
:102140002B46206EFEF75AFD402021680862206869
:102150008068802108432168886000BF00216820D2
:10216000015500BF0020BEE70220BCE7F9270008A8
:1021700039280008D3270008704770470EB51A4861
:102180001A4908604005486008211848816000210C
:10219000C160012101610421416100218161C161AE
:1021A00001624162C162012101634163FEF740FAAD
:1021B0000E48FEF716F90720009001200003019059
:1021C0000720029069460948FEF76CF90820009044
:1021D00069460648FEF766F90920009069460348FB
:1021E000FEF760F90EBD000000240140E00600206B
:1021F00008B500BF124840690121084310494861F1
:1022000008464069C007C00F009000BF00BF002211
:1022100001210920FEF79EFE0920FEF78FFE002215
:1022200002210A20FEF796FE0A20FEF787FE002212
:1022300011460B20FEF78EFE0B20FEF77FFE08BD39
:102240000010024000B587B000BF37484069012147
:1022500089040843344948610846406901218904DA
:102260000840019000BF00BF00BF2F4840694910DF
:1022700008432D4948610846406901214904084046
:10228000019000BF00BF00BF2748406949010843D3
:1022900025494861084640690121890508400190A7
:1022A00000BF00BF70200290032005900120039022
:1022B00002A90920C006FEF7EBFC1C480290022090
:1022C00004900020039002A90920C006FEF7E0FC5C
:1022D00017480290022004900020039002A915489C
:1022E000FEF7D6FC01204002029003200590012059
:1022F000039002A90F48FEF7CBFC07204003029091
:10230000022004900020039002A90B48FEF7C0FCB5
:10231000C0200290022004900020039002A90748E8
:10232000FEF7B6FC07B000BD0010024003990000A4
:10233000FCFD0000000400480008004800140048AC
:1023400000B587B00E480F4908606420486000213E
:102350000C4881600121C16000210161FFF787FB0A
:1023600001200003039003A90648FFF7BFFB0020EC
:102370000190029001A90348FFF748FB07B000BD98
:1023800000040040A406002010B50C480C49086069
:10239000E12040024860002109488160C16001617C
:1023A0000C21416100218161C16101620020044969
:1023B00048620846FFF7B4FD10BD00000038014038
:1023C0006407002010B50B480B4908600B484860B3
:1023D000002109488160C16001610C214161002137
:1023E0008161C16101620020034948620846FFF72C
:1023F00097FD10BD00440040D4070020127A000071
:1024000010B5002819DA1A4A03071B0F083B9B086E
:102410009B00D2588307DC0EFF23A3409A438B070F
:102420001B0E8407E40EA3401A43114B0407240F2C
:10243000083CA408A4001A5118E00E4A03231B020A
:10244000D21883089B00D2588307DC0EFF23A340D9
:102450009A438B071B0E8407E40EA3401A43054BD7
:10246000032424021B198408A4001A5110BD000083
:102470001CED00E000E100E010B5FEF71BFDFFF7EA
:10248000BFFA01200349087003480088401C024934
:10249000088010BD980600208C06002030B595B04D
:1024A00001200890099002201190C1031291C104EB
:1024B00013910021149108A8FEF79CFF01200490BD
:1024C00002200590002006900790012104A8FEF745
:1024D000DFFD01200090002002906846FEF744FDD9
:1024E000FEF7FEFE05460549FDF7FCFD0446FFF735
:1024F0006BFA0420FFF754FA15B030BDA086010036
:1025000019480068012108431749086008464068D7
:1025100016490840144948600846006814490840B4
:1025200011490860084600680121890488430E4962
:102530000860084640683F21090488430A4948600A
:102540000846C06A00090001C8620846006BFF2106
:1025500014318843044908630846406B4008400032
:102560004863002088607047001002400CB8FF08E4
:10257000FFFFF6FE10B50448FFF758FB034800883C
:10258000401C0249088010BDA40600208C060020D3
:1025900010B5002202681D4B984202D01C4B984295
:1025A00005D170241346A3431A464B681A43174BB0
:1025B00098420ED0164B98420BD0164B984208D03A
:1025C000154B984205D0154B984202D0144B9842B7
:1025D00006D1032424021346A3431A46CB681A43A8
:1025E00002608B68C3620B688362084B984208D014
:1025F000094B984205D0094B984202D0084B9842AB
:1026000001D10B6903630123436110BD002C01401C
:102610000004004000200040004001400044014010
:102620000048014070B50C4600218168FF26360243
:102630000D46B54329461D021543254329438160B4
:1026400070BD10B50A460021816870240B46A34373
:102650001946072313431943816010BD70B50B461B
:10266000144600210022026A056A6D086D000562A9
:102670008169F0260D46B5432946250129430A26DE
:102680001546B5432A4615461D432A468161026216
:1026900070BD70B50B46144600210022056A102655
:1026A000B54305628169026A0F2636030D46B543BC
:1026B000294625032943A0261546B5432A461D0170
:1026C0002A438161026270BD818CC907C90F00294C
:1026D00008D001684968012252049143826A11437B
:1026E000026851600222416A1140002907D0016846
:1026F0004968D2039143C26A1143026851600422BF
:10270000416A1140002907D00168496812049143C9
:10271000026B1143026851600822416A114000298E
:1027200007D00168496812039143426B1143026864
:1027300051601022416A1140002907D00168896860
:1027400012029143826B1143026891602022416A18
:102750001140002907D00168896812029143C26BB9
:102760001143026891604022416A1140002915D04E
:102770000168496892039143026C114302685160F9
:1027800001221205016C914208D1016849680322B7
:1027900052059143426C1143026851608022416AA4
:1027A0001140002907D00168496812039143826CE7
:1027B000114302685160704701460020C86601223B
:1027C0006920425400BF00226820425400BF00200C
:1027D000704770B505466C6A00215A20015352209B
:1027E0000153012169200155E06E10210843E06684
:1027F0002046FFF703FB70BD70B505466C6A28687C
:10280000006820210840002812D1002152200153E5
:102810000121692001552068806880218843216852
:10282000886020680068402108432168086002E051
:102830002046FFF7A1FC70BD70B50446656A2846C6
:10284000FFF79BFC70BD10B504462068006840216E
:102850008843216808606920005D322803D1222165
:102860006920015508E02068806840084000216820
:1028700088600121692001552046FFF77DFC00207A
:1028800010BD70B504465C20065B6920005D2228FF
:1028900003D06920005D322845D101210903A068D9
:1028A00088420BD12069002808D1656D2068808C92
:1028B00030402880606D801C606507E02068808C57
:1028C000F1B20840626D511C616510705A20005BC6
:1028D000401E81B25A200153002922D1206800688D
:1028E00020218843216808606920005D322803D1D7
:1028F0001221692001550FE020680068FF21013195
:10290000884321680860206880684008400021688A
:1029100088600121692001552046FFF7D1FB002086
:1029200070BD0020FCE70220FAE70000FEB5044677
:102930000025102600270020029001902169A06840
:10294000084361690843E169084305462068006857
:102950005D490840284321680860206840680321D9
:1029600009038843E168084321684860216AA06937
:1029700008430546206880680B21090288432843E4
:102980002168886000BF51492068884217D15048AB
:10299000006B8007800F002806D0012808D002288D
:1029A00008D0032808D101E0002607E0022605E050
:1029B000042603E0082601E0102600BF06E0454992
:1029C0002068884201D1002600E0102600BF0121C6
:1029D000C903E06988423FD1042E1BD004DC002EDD
:1029E00007D0022E28D10EE0082E1DD0102E23D1A4
:1029F00023E0FEF78BFC400000906168FDF772FB5E
:102A000080B202901CE034486168FDF76BFB80B235
:102A1000029015E0FEF78CFC400000906168FDF725
:102A200061FB80B202900BE0012000046168FDF7B9
:102A300059FB80B2029003E000BF0120019000BF6B
:102A400000BF264902980840074602980007400F39
:102A500007432068C76035E0042E1CD004DC002E3C
:102A600007D0022E29D10EE0082E1ED0102E24D120
:102A700024E0FEF74BFC00906168FDF733FB80B269
:102A80002168C8601DE016486168FDF72BFB80B225
:102A90002168C86015E0FEF74BFC00906168FDF707
:102AA00021FB80B22168C8600BE00120C00361688F
:102AB000FDF718FB2168C86003E000BF012001900A
:102AC00000BF00BF0198FEBDF369FFFF0038014061
:102AD00000100240004400400024F400F0FF000019
:102AE00000127A0001466920405C122803D0692058
:102AF000405C322831D15220405A00280DD108685C
:102B00000068802398430B681860086800684023B9
:102B100018430B6818600020704701231B03886866
:102B200098420CD10869002809D1CA6C1088C005E8
:102B3000C00D0B681885C86C801CC86405E0CB6CA0
:102B4000581CC86418780B6818855220405A401EDB
:102B500083B2522043520020DEE70220DCE700006F
:102B600010B50248FFF74BF910BD000064070020C4
:102B700010B50248FFF743F910BD0000D40700204C
:102B800030B47446641E2578641CAB4204D3635D84
:102B90005B00E31830BC18471D46F8E702E008C8A0
:102BA000121F08C1002AFAD170477047002001E0C7
:102BB00001C1121F002AFBD17047000030B50B2362
:102BC000154A14781278521C134D2A70134A135563
:102BD000B0232A4614781278521C2A700F4A1355D3
:102BE0002A4613781278521C2C4622700B4AD05475
:102BF000224613781278521C2270084AD154224679
:102C00001278C72A02DD002223461A70044A12787D
:102C1000121D034B1A7030BD94060020880A002054
:102C20009506002010B504462300FFF7A9FF08050C
:102C3000182B3E5164778A9D002210210920C0067E
:102C4000FEF72BF9002220210920C006FEF725F906
:102C5000002240210920C006FEF71FF985E001226D
:102C600010210920C006FEF718F9002220210920B2
:102C7000C006FEF712F9002240210920C006FEF727
:102C80000CF972E0002210210920C006FEF705F9B8
:102C9000012220210920C006FEF7FFF80022402172
:102CA0000920C006FEF7F9F85FE001221021092093
:102CB000C006FEF7F2F8012220210920C006FEF727
:102CC000ECF8002240210920C006FEF7E6F84CE0AF
:102CD000002210210920C006FEF7DFF80022202183
:102CE0000920C006FEF7D9F8012240210920C006BC
:102CF000FEF7D3F839E0012210210920C006FEF7C3
:102D0000CCF8002220210920C006FEF7C6F80122D7
:102D100040210920C006FEF7C0F826E0002210215D
:102D20000920C006FEF7B9F8012220210920C006BB
:102D3000FEF7B3F8012240210920C006FEF7ADF8E6
:102D400013E0012210210920C006FEF7A6F8012297
:102D500020210920C006FEF7A0F801224021092009
:102D6000C006FEF79AF800E000BF00BF10BD0000EB
:102D700030B59023114A14781278521C0F4D2A70E6
:102D80000F4A13552A4613781278521C2C4622708B
:102D90000B4AD054224613781278521C2270084AEB
:102DA000D15422461278C52A02DD002223461A7029
:102DB000044A1278D21C034B1A7030BD90060020D2
:102DC000BC0900209106002030B50923154A14786B
:102DD0001278521C134D2A70134A135590232A4619
:102DE00014781278521C2A700F4A13552A46137809
:102DF0001278521C2C4622700B4AD054224613786B
:102E00001278521C2270084AD15422461278C72ADE
:102E100002DD002223461A70044A1278121D034B69
:102E20001A7030BD94060020880A00209506002004
:102E300070B501460B880C880888012211E0550006
:102E40004D5BA54201DD55004C5B55004D5B9D423D
:102E500001DA55004B5B55004D5B2D18A8B2551C8F
:102E6000EAB2062AEBDBC51A2D1BA8B20546C61727
:102E7000B60F7619B01070BDFEF724F8FFF70EFB01
:102E8000FFF7E0F9FFF7B4F9FFF778F9FFF758FA21
:102E9000FFF77AFAFFF796FA002201214902FE486D
:102EA000FDF7FBFF0020FD490870FD480078FFF7A3
:102EB000B9FEFDE30020FB490870F84800780028BF
:102EC00077D001218902F448FDF7DAFF002819D0F4
:102ED000F548F3490978405CC007C00F002843D18A
:102EE000F148EF490978405C01210843EE49EC4A7A
:102EF00012788854ED480088E94909784900EC4A7D
:102F0000505231E0E848E6490978405CC007C00FFC
:102F1000002824D0E24800784000E649085CC00759
:102F2000C00F00281BD0DE4909785722511AC8B2B9
:102F30000021FFF71DFFDA4800784000DD49085AFC
:102F400040084000D64909784900DA4A5052D4492D
:102F500009786C22511AC8B20021FFF735FF002012
:102F6000D149CF4A127888540121C902CA48FDF7D5
:102F700087FF00281ED0CC480830C9490978405C3A
:102F8000C007C00F002849D1C7480830C449097894
:102F9000405C01210843C4490831C14A1278885471
:102FA000C2480188BE4800784200C14810308152B2
:102FB00034E065E3BC480830B9490978405CC00793
:102FC000C00F002824D0B64800784000B949085AFC
:102FD0000221084000281BD0B14909784F22511A1C
:102FE000C8B20021FFF7C4FEAD4800784000B149E7
:102FF000085A02218843AA4909784900AD4A50522B
:10300000A74909786422511AC8B20021FFF7DCFEF3
:103010000021A5480830A24A1278815480219E4898
:10302000FDF72EFF00281DD09F4810309C490978DD
:10303000405CC007C00F002848D19B481030984919
:103040000978405C0121084397491031944A12786D
:10305000885496480188924800784200944820306D
:10306000815233E0904810308D490978405CC007A8
:10307000C00F002824D08A48007840008D49085AA3
:103080000421084000281BD0854909784722511A9D
:10309000C8B20021FFF76CFE8148007840008549E6
:1030A000085A042188437E4909784900814A5052D0
:1030B0007B4909785C22511AC8B20021FFF784FECF
:1030C000002179481030764A1278815440217248A4
:1030D000FDF7D6FE00281DD07348183070490978D6
:1030E000405CC007C00F002848D16F4818306C49B9
:1030F0000978405C012108436B491831684A12780D
:1031000088546A4801886648007842006848303030
:10311000815233E06448183061490978405CC00747
:10312000C00F002824D05E48007840006149085A4A
:103130000821084000281BD0594909783F22511A1C
:10314000C8B20021FFF714FE5548007840005949E5
:10315000085A08218843524909784900554A505273
:103160004F4909785422511AC8B20021FFF72CFEAA
:1031700000214D4818304A4A12788154202146488F
:10318000FDF77EFE00281DD04748203044490978CD
:10319000405CC007C00F002848D143482030404958
:1031A0000978405C012108433F4920313C4A1278AC
:1031B00088543E4801883A48007842003C484030F4
:1031C000815233E03848203035490978405CC007E7
:1031D000C00F002824D03248007840003549085AF2
:1031E0001021084000281BD02D4909783722511A98
:1031F000C8B20021FFF7BCFD2948007840002D49E6
:10320000085A10218843264909784900294A505212
:10321000234909784C22511AC8B20021FFF7D4FD86
:103220000021214820301E4A1278815410211A486A
:10323000FDF726FE00281DD01B48283018490978C4
:10324000405CC007C00F002858D1174828301449E7
:103250000978405C0121084313492831104A12784B
:103260008854124801880E480078420010485030B7
:10327000815243E00C48283009490978405CC00776
:10328000C00F002835D00648007840000949085A88
:103290002021084000280FE0000400488F0600208D
:1032A0008E06002098060020B40800208C0600201E
:1032B0000C090020540B00201BD0FE4909782F2256
:1032C000511AC8B20021FFF753FDFA4800784000B8
:1032D000F949085A20218843F64909784900F64AF5
:1032E0005052F44909784422511AC8B20021FFF71C
:1032F0006BFD0021F148EF4A127881540821F04813
:10330000FDF7BEFD00281CD0EC480830E9490978DB
:10331000405CC007C00F002847D1E8480830E549A5
:103320000978405C01210843E4490831E14A1278F8
:103330008854E4480188DF4800784200E24881521E
:1033400033E0DE480830DB490978405CC007C00F35
:10335000002824D0D74800784000D749085A402197
:10336000084000281BD0D34909782722511AC8B237
:103370000021FFF7FDFCCF4800784000CE49085AF5
:1033800040218843CB4909784900CB4A5052C9496A
:1033900009783C22511AC8B20021FFF715FD00211F
:1033A000C6480830C34A127881540121C903092054
:1033B000C006FDF765FD00281DD0C0481030BD498E
:1033C0000978405CC007C00F002848D1BB481030C6
:1033D000B8490978405C01210843B8491031B54A21
:1033E00012788854B7480188B24800784200B6483D
:1033F0001030815233E0B1481030AE490978405C5A
:10340000C007C00F002824D0AA4800784000AA496D
:10341000085A8021084000281BD0A64909781F229D
:10342000511AC8B20021FFF7A3FCA248007840005F
:10343000A149085A802188439E49097849009E4A3B
:1034400050529C4909783422511AC8B20021FFF722
:10345000BBFC002199481030964A12788154802193
:103460009A48FDF70DFD00281DD094481830914969
:103470000978405CC007C00F00284AD18F48183037
:103480008C490978405C012108438C491831894AEC
:10349000127888548B4801888648007842008A4810
:1034A0002030815235E08548183082490978405CE7
:1034B000C007C00F002826D07E48007840007E4913
:1034C000085AFF210131084000281CD079490978A9
:1034D0001722511AC8B20021FFF74AFC754800783C
:1034E00040007549085AFF21013188437149097824
:1034F0004900714A50526F4909782C22511AC8B2BA
:103500000021FFF761FC00216C481830694A1278ED
:10351000815440216D48FDF7B3FC00281DD0674859
:10352000203064490978405CC007C00F00284AD1A8
:10353000624820305F490978405C012108435F49B7
:1035400020315C4A127888545E48018859480078D6
:1035500042005D483030815235E0584820305549AE
:103560000978405CC007C00F002826D05148007879
:1035700040005149085A01214902084000281CD046
:103580004C4909780F22511AC8B20021FFF7F0FB0D
:103590004848007840004849085A012149028843B8
:1035A000444909784900444A505242490978242242
:1035B000511AC8B20021FFF707FC00213F48203014
:1035C0003C4A12788154012109030920C006FDF705
:1035D00057FC00281DD03948283036490978405C0E
:1035E000C007C00F002813D134482830314909786A
:1035F000405C01210843314928312E4A1278885411
:10360000304801882B48007842002F4840308152D2
:10361000FEE32A48283027490978405CC007C00FDC
:10362000002826D02348007840002349085A012169
:103630008902084000281CD01E4909780722511A27
:10364000C8B20021FFF794FB1A48007840001A49DD
:10365000085A012189028843164909784900164A07
:103660005052144909781C22511AC8B20021FFF7A0
:10367000ABFB0021114828300E4A12788154C7E76D
:10368000012189020E48FDF7FBFB002877D00B488B
:10369000283808490978405C012870D10748283843
:1036A00004490978405C10210843044928390FE097
:1036B000FEE300008E060020540B0020DC080020F2
:1036C000000400488C0600206C090020001400480B
:1036D000FE4A12788854FD4800784000FC49085A98
:1036E000FC49098888420DDAF84800784000F8491A
:1036F000085AF8490988081AF44909784900F44A2F
:1037000050520FE0F14800784000F149085A00217A
:10371000C943081AEF4909884018EC49097849005B
:10372000EB4A5052E94A12785200E94B995AE74A5B
:10373000127857239A1AE84B9A5C9200E74B9858F4
:1037400000F0DAFEC4B2E14909785722511AC8B232
:103750002146FFF70DFBDD4800784000E049085A9C
:1037600001210843D94909784900DD4A5052D74917
:1037700009786C22511AC8B22146FFF725FB0121B6
:10378000C902D848FDF77CFB00286BD0D648CF494A
:103790000978405C012865D1D348CC490978405C60
:1037A00010210843D049C94A12788854C748007884
:1037B0004100C7481030405AC6490988884210DA8B
:1037C000C24800784100C2481030405AC1490988B7
:1037D000081A81B2BD4800784200BD4810308152BD
:1037E00012E0BA4800784100B9481030405A002130
:1037F000C943081AB7490988401881B2B34800780C
:103800004200B34810308152B04A12785300B04A97
:103810001032D15AAD4A12784F239A1AAE4B9A5CA5
:103820009200AE4B985800F067FEC4B2A7490978E1
:103830004F22511AC8B22146FFF79AFAA3480078DE
:103840004000A749085A02210843A04909784900C5
:10385000A34A50529D4909786422511AC8B22146A0
:10386000FFF7B2FA80219F48FDF70AFB00286ED0CF
:103870009D48083095490978405C012867D19A48ED
:10388000083092490978405C102108439649083174
:103890008E4A127888548D48007841008C48203038
:1038A000405A8C490988884210DA884800784100DB
:1038B00087482030405A87490988081A81B28348CE
:1038C0000078420082482030815212E07F48007820
:1038D00041007F482030405A0021C943081A7D49E1
:1038E0000988401881B27948007842007848203031
:1038F0008152764A12785300754A2032D15A734A5F
:10390000127847239A1A744B9A5C9200734B98581A
:1039100000F0F2FDC4B26D4909784722511AC8B2CD
:103920002146FFF725FA6948007840006C49085A9B
:1039300004210843654909784900694A505263499E
:1039400009785C22511AC8B22146FFF73DFA40219E
:103950006448FDF795FA00286ED0634810305B4943
:103960000978405C012867D15F48103057490978D1
:10397000405C102108435C491031544A1278885445
:1039800052480078410052483030405A5149098825
:10399000884210DA4D48007841004D483030405A96
:1039A0004C490988081A81B24848007842004848C2
:1039B0003030815212E045480078410044483030B0
:1039C000405A0021C943081A42490988401881B267
:1039D0003E48007842003E48303081523B4A1278DF
:1039E00053003B4A3032D15A384A12783F239A1A50
:1039F000394B9A5C9200394B985800F07DFDC4B267
:103A0000324909783F22511AC8B22146FFF7B0F96E
:103A10002E48007840003249085A082108432B49B3
:103A2000097849002E4A5052284909785422511ADF
:103A3000C8B22146FFF7C8F920212A48FDF720FA2D
:103A400000287DD02848183020490978405C01289A
:103A500079D1254818301D490978405C1021084368
:103A600021491831194A12788854184800784100C1
:103A700017484030405A17490988884210DA1348DD
:103A80000078410012484030405A12490988081A0B
:103A900081B20E48007842000D484030815212E059
:103AA0000A48007841000A484030405A0021C94382
:103AB000081A08490988401881B204480078420071
:103AC000034840308152014A12780FE08E060020F0
:103AD0000C0900208C060020180000207006002031
:103AE000540B002000040048BC0800205300FD4A8D
:103AF000D15AFD4A127837239A1AFC4B9A5C9200ED
:103B0000FB4B985800F0F8FCC4B2F749097837220B
:103B1000511AC8B22146FFF72BF9F348007840004C
:103B2000F449085A10210843EF4909784900F14A3D
:103B30005052ED4909784C22511AC8B2214600E092
:103B400001E0FFF741F91021EB48FDF799F9002852
:103B50006BD0EA48E4490978405C012865D1E74820
:103B6000E1490978405C10210843E449DE4A1278B3
:103B70008854DD4800784100DA481030405AE04966
:103B80000988884210DAD84800784100D5481030BA
:103B9000405ADB490988081A81B2D34800784200AC
:103BA000D0481030815212E0CF4800784100CD4813
:103BB0001030405A0021C943081AD14909884018D9
:103BC00081B2C94800784200C64810308152C64AC6
:103BD00012785300C34A1032D15AC34A12782F23A5
:103BE0009A1AC24B9A5C9200C14B985800F084FC20
:103BF000C4B2BD4909782F22511AC8B22146FFF735
:103C0000B7F8B94800784000BA49085A202108435B
:103C1000B54909784900B74A5052B3490978442256
:103C2000511AC8B22146FFF7CFF80821B248FDF774
:103C300027F900286ED0B1480830AB490978405CBC
:103C4000012867D1AD480830A7490978405C1021A8
:103C50000843AA490831A44A12788854A248007837
:103C60004100A0482030405AA5490988884210DA0E
:103C70009D48007841009B482030405AA04909885F
:103C8000081A81B298480078420096482030815244
:103C900012E095480078410092482030405A0021B7
:103CA000C943081A96490988401881B28E4800789D
:103CB00042008C48203081528B4A12785300894A46
:103CC0002032D15A884A127827239A1A874B9A5C55
:103CD0009200874B985800F00FFCC4B282490978D3
:103CE0002722511AC8B22146FFF742F87E480078D1
:103CF00040008049085A402108437B49097849001F
:103D00007C4A5052784909783C22511AC8B221465F
:103D1000FFF75AF80121C9030920C006FDF7B0F8E2
:103D200000286ED0754810306F490978405C012832
:103D300067D1724810306C490978405C1021084303
:103D40006E491031684A12788854674800784100FB
:103D500064483030405A6A490988884210DA62481B
:103D6000007841005F483030405A65490988081A98
:103D700081B25D48007842005A483030815212E0EA
:103D800059480078410057483030405A0021C94313
:103D9000081A5B490988401881B2534800784200EC
:103DA000504830308152504A127853004D4A3032D8
:103DB000D15A4D4A12781F239A1A4C4B9A5C9200A2
:103DC0004B4B985800F098FBC4B2474909781F2222
:103DD000511AC8B22146FEF7CBFF43480078400095
:103DE0004449085A802108433F4909784900414A1B
:103DF00050523D4909783422511AC8B22146FEF783
:103E0000E3FF80213F48FDF73BF800287CD000E02D
:103E10006BE13A48183034490978405C01287ED17A
:103E20003648183030490978405C1021084333493E
:103E300018312D4A127888542B48007841002948BF
:103E40004030405A2E490988884210DA26480078C6
:103E5000410024484030405A29490988081A81B253
:103E60002148007842001F484030815212E01E482D
:103E7000007841001B484030405A0021C943081ACD
:103E80001F490988401881B2174800784200154838
:103E900040308152144A12785300124A4032D15AAB
:103EA000114A127817239A1A104B9A5C920000E07C
:103EB00026E20F4B985800F01FFBC4B20A4909785C
:103EC0001722511AC8B22146FEF752FF0648007861
:103ED00040000849085AFF21013108430249097886
:103EE000490012E04C0900208E0600201800002036
:103EF00070060020540B002000040048DC0800205D
:103F00008C0600200014004809E0FE4A5052FE4989
:103F100009782C22511AC8B22146FEF755FF4021DC
:103F2000FA48FCF7ADFF002866D0F948F649097851
:103F3000405C012860D1F648F3490978405C1021C3
:103F40000843F349F04A12788854EF48007841005A
:103F5000F048405AF049098888420EDAEA48007869
:103F60004100EC48405AEC490988081A81B2E648F9
:103F700000784200E748815210E0E34800784100B1
:103F8000E448405A0021C943081AE3490988401807
:103F900081B2DD4800784200DE488152DA4A127868
:103FA0005300DC4AD15AD84A12780F239A1ADB4BB5
:103FB0009A5C9200DA4B985800F09EFAC4B2D2494B
:103FC00009780F22511AC8B22146FEF7D1FECE4819
:103FD00000784000CB49085A012149020843CA49E8
:103FE00009784900C74A5052C74909782422511A12
:103FF000C8B22146FEF7E8FE012109030920C006E8
:10400000FCF73EFF00286FD0C1480830BE49097850
:10401000405C012868D1BE480830BB490978405C43
:1040200010210843BA490831B74A12788854B64873
:1040300000784100B7481030405AB7490988884293
:1040400010DAB14800784100B2481030405AB24905
:104050000988081A81B2AC4800784200AD48103097
:10406000815212E0A84800784100AA481030405A16
:104070000021C943081AA8490988401881B2A248FA
:1040800000784200A348103081529F4A12785300B2
:10409000A04A1032D15A9C4A127807239A1A9F4B91
:1040A0009A5C92009E4B985800F026FAC4B296494A
:1040B00009780722511AC8B22146FEF759FE9248E4
:1040C000007840008F49085A0121890208438E492F
:1040D000097849008B4A50528B4909781C22511AA1
:1040E000C8B22146FEF770FE00BF87480078401C2A
:1040F000C0B28549087007281BDD00200870012127
:1041000049028848FCF7C5FE87480078C0438649C5
:10411000087086480078401CC0B284490870632843
:1041200007DD032282498348FCF7A8FB00207F4972
:10413000087075480078FEF775FD7F480078002804
:1041400034D07E480078002830D17D4800787A4904
:1041500009784018C82805DD79480078C821081A70
:10416000C4B201E0744804780120744908707548AD
:10417000734A1278811822467348FDF7A3FF00287E
:1041800010D16F48007800196D4908700846007812
:10419000C72801DD0020087067480078001B6649C9
:1041A000087002E000206549087000BF6748007889
:1041B000002834D066480078002830D1654800785F
:1041C000624909784018C62805DD62480078C62192
:1041D000081AC4B201E05D48047801205C49087007
:1041E0005D485C4A1278811822465C48FDF76AFFF8
:1041F000002810D157480078001956490870084621
:104200000078C52801DD0020087050480078001BA8
:104210004E49087002E000204D49087000BF504828
:10422000007800286CD000204D4908704D48FEF7FA
:10423000FFFD0446D920800084421CDD4A480078F6
:10424000C007C00F002851D07F214020FEF7B6FCE8
:104250004548007840084000434908707F214020CD
:10426000FEF7ACFC7F214020FEF7A8FCD92080009F
:104270003E4908803AE0F82C1BDA3B4800780221DE
:104280000840002832D000214020FEF797FC364835
:104290000078022188433449087000214020FEF74D
:1042A0008DFC00214020FEF789FCF8202F49088072
:1042B0001CE02E480088001D844204DC2B48008846
:1042C000001FA04212DD294804802546E017400E59
:1042D0004019C011C001201AC1B24020FEF76EFC87
:1042E00021480078032108431F4908702048FEF741
:1042F0009FFD0446D9208000844257DD1A4839E0EA
:10430000F0E00000540B00208E060020001400484E
:10431000FC0800209C0900208C06002018000020CA
:1043200070060020000400488F0600209906002037
:10433000640B0020E0060020950600209606002071
:1043400097060020880A0020D4070020910600204C
:104350009206002093060020BC090020640700207C
:10436000A1060020700B0020A20600209A06002063
:104370007C0B0020007804210840002851D07F21C8
:104380004220FEF71BFC5848007804218843564918
:1043900008707F214220FEF711FC7F214220FEF7AA
:1043A0000DFCD9208000514908803AE0F82C1BDA36
:1043B0004D48007808210840002832D000214220D2
:1043C000FEF7FCFB484800780821884346490870FE
:1043D00000214220FEF7F2FB00214220FEF7EEFB17
:1043E000F820424908801CE040480088001D8442B3
:1043F00004DC3E480088001FA04212DD3B480480D8
:104400002546E017400E4019C011C001201AC1B264
:104410004220FEF7D3FB344800780C210843324990
:1044200008703348FEF704FD0446D920800084421A
:104430001CDD2D48007810210840002851D07F2134
:104440004320FEF7BBFB284800781021884326490B
:1044500008707F214320FEF7B1FB7F214320FEF748
:10446000ADFBD9208000234908803AE0F82C1BDA04
:104470001D48007820210840002832D00021432028
:10448000FEF79CFB184800782021884316490870E5
:1044900000214320FEF792FB00214320FEF78EFB14
:1044A000F820144908801CE012480088001D84424E
:1044B00004DC10480088001FA04212DD0D48048073
:1044C0002546E017400E4019C011C001201AC1B2A4
:1044D0004320FEF773FB044800783021084302496B
:1044E000087000BFFEF7E6FCA20600209C06002034
:1044F000880B00209E06002030B503460A461C4665
:10450000DD1DF93518E0281B8010400001190888CE
:10451000904208DC08464038C08F904203DDC81A3C
:10452000C003000C30BD0888904201DD8C1C03E004
:104530000888904200DA0D46AC42E4D30020F1E74F
:104540000000000001020304010203040607080939
:104550007045000800000020A40600003401000897
:10456000D8460008A4060020F4080000AC2B000880
:104570002200016004127A0001100C0102030406FB
:1045800007080901020103510501110C330304025C
:104590008105D10C100506050605037107610C00A5
:1045A000FF003075457459736E7282719770AB6FEE
:1045B000C06ED56DE96CFE6B126B276A3B69506863
:1045C000656779668E65A264B763CB62E061F4606B
:1045D00009601E5F325E475D5B5C705B845A99596F
:1045E000AE58C257D756EB550055145429533E5276
:1045F000525167507B4F904EA44DB94CCE4BE24A7E
:10460000F7490B492048344749465D457244874382
:104610009B42B041C440D93FED3E023E173D2B3C8A
:10462000403B543A69397D389237A736BB35D03490
:10463000E433F9320D32223137304B2F602E742D96
:10464000892C9D2BB22AC629DB28F027042719269E
:104650002D25422456236B2280219420A91FBD1EA4
:10466000D21DE61CFB1B101B241A39194D186217AA
:1046700076168B15A014B413C912DD11F2100610B2
:104680001B0F2F0E440D590C6D0B820A9609AB08B7
:10469000BF07D406E905FD04120426033B024F01BF
:1046A00007FF0A000005FF0005FF0005FF0005FAEF
:1046B00000300570000020041201041202041203ED
:1046C000041204041C040500208A067EFF890633B8
:0846D00000F4022101000000CA
:04000005080000B53A
:00000001FF
